:1000000000000120910100007F0300008103000037
:100010008303000085030000870300000000000048
:100020000000000000000000000000008903000044
:100030008B030000000000008D030000BD5F000086
:100040009103000093030000950300009703000054
:10005000990300009B0300009D0300009F03000024
:10006000A1030000A3030000813100009D310000C6
:10007000A9030000AB030000AD030000AF030000C4
:10008000B1030000B3030000B503000061320000BB
:1000900075070000350A0000BD030000BF03000023
:1000A000C1030000C3030000C503000029350000A0
:1000B000C1350000CB030000CD030000CF030000DA
:1000C000D1030000D3030000D5030000D7030000D4
:1000D000D9030000DB030000DD030000DF030000A4
:1000E000E1030000E3030000E5030000E703000074
:1000F000E9030000EB030000ED030000EF03000044
:10010000F1030000F3030000F5030000F703000013
:10011000F9030000FB030000FD030000FF030000E3
:1001200001040000030400000504000007040000AF
:10013000090400000B0400000D0400000F0400007F
:10014000110400001304000015040000170400004F
:10015000190400001B0400001D0400001F0400001F
:1001600021040000230400002504000027040000EF
:10017000290400002B0400002D0400002F040000BF
:100180003104000033040000000000000000000003
:100190004FF0000BDFF8BE020068DFF8B612096806
:1001A00001F0030100F01C00142801D14BF0020BF8
:1001B000002901D04BF0010BBBF1000F05D0A7487F
:1001C000A749DFF8722200F09FF8A64880470BF09D
:1001D000020ABAF1000F0CD0DFF86E02DFF86E12DF
:1001E00002680B680FB44FF000024FF0FF0302608B
:1001F0000B609D489D4A9E4B022808D1DFF83E12B5
:100200000A60DFF842120A60DFF836120B6001283C
:1002100008D1DFF82E120A60DFF82A120A60DFF830
:100220001E120B609348002809D193489349944AC1
:1002300000F032F893489449944A00F02DF894481D
:100240009449954A00F028F894489549DFF8E6214A
:1002500000F05AF8BBF1000F12D092489249DFF833
:10026000DA2100F051F80BF0020ABAF1000F07D0C2
:100270000FBC02600B6000BFAFF30080AFF30080E3
:10028000DFF828020FF2030E00474FF000004FF096
:100290000001DFF81CF2FEE72DE9F841884225D085
:1002A000B2EB010200D5FEE740EA010313F00303BD
:1002B00002D000F01DF819E04FF000039046121133
:1002C000F7D09A421CBFF0C8F0C103F10103F8D186
:1002D00008F00F08B8F1000F08D004780C7000F196
:1002E000010001F10101B8F10108F6D1BDE8F88182
:1002F00008B54FF0000303780B7000F1010001F125
:100300000101013AF7D108BD884237D000F0030659
:10031000002E14D04FF00405A5EB06044FF008079B
:1003200007FB06F8914669FA08F9002C07D080F817
:10033000009069FA07F900F10100013CF5E74FF080
:1003400000060F46091A88460911914614461546BB
:10035000B14206D018BFA0E8340206F10106B1424E
:10036000F8D108F00F08B8F1000F07D002704FEA7B
:10037000322200F10100B8F10108F4E77047FEE70E
:10038000FEE7FEE7FEE7FEE7FEE7FEE7FEE7FEE745
:10039000FEE7FEE7FEE7FEE7FEE7FEE7FEE7FEE735
:1003A000FEE7FEE7FEE7FEE7FEE7FEE7FEE7FEE725
:1003B000FEE7FEE7FEE7FEE7FEE7FEE7FEE7FEE715
:1003C000FEE7FEE7FEE7FEE7FEE7FEE7FEE7FEE705
:1003D000FEE7FEE7FEE7FEE7FEE7FEE7FEE7FEE7F5
:1003E000FEE7FEE7FEE7FEE7FEE7FEE7FEE7FEE7E5
:1003F000FEE7FEE7FEE7FEE7FEE7FEE7FEE7FEE7D5
:10040000FEE7FEE7FEE7FEE7FEE7FEE7FEE7FEE7C4
:10041000FEE7FEE7FEE7FEE7FEE7FEE7FEE7FEE7B4
:10042000FEE7FEE7FEE7FEE7FEE7FEE7FEE7FEE7A4
:10043000FEE7FEE7704700000000A2A2A2A2008033
:100440000340088003401080034030800340348024
:1004500003403880034018080240000000F00020EC
:10046000000001208953000000000000000000008F
:10047000010000000000000000000000000000007B
:1004800090010000C0040000C0040000607D000076
:10049000607D000000000020C0090020C00900208D
:1004A000201200202012002000F0002089600000AF
:1004B0004D57000000000000000000000000000098
:1004C00010B5054C237833B9044B13B10448AFF38E
:1004D00000800123237010BDC0090020000000002F
:1004E000307D0000084B10B51BB108480849AFF338
:1004F00000800848036803B910BD074B002BFBD0F0
:10050000BDE81040184700BF00000000307D00002B
:10051000C4090020000000200000000042F2DE714B
:100520005F4B002270B51A60996040F20F310225CE
:10053000D960C1211D615A61996140F69F11D9614D
:1005400043F233311A6259624FF6FF71996247F2F2
:100550007771D96240F6FF7144F24220196301219C
:10056000596398630820D8632024332018645C649E
:10057000C0249A64DA641C6523245C6540F2352447
:100580009C656424DC654FF484741C664FF4BC7471
:100590005C66986641F64710D866102018674FF4DD
:1005A0004C505A67986740F21450DA674FF4007461
:1005B000C3F880201226C3F884004020C3F88820A6
:1005C000C3F88C40C3F89000C3F8946048F2F80672
:1005D000C3F898504FF48045C3F89C500725C3F8E2
:1005E000A060C3F8A450C3F8A860C3F8AC5040F2B0
:1005F0000935C3F8B0400324C3F8B410C3F8B820D9
:10060000C3F8BC40C3F8C040C3F8C400C3F8C82056
:10061000C3F8CC20C3F8D020C3F8D420C3F8D850F6
:100620008025C3F8E020C3F84021C3F81C22C3F89A
:1006300024520B25C3F8304240F20146C3F8382259
:10064000C3F84022C3F8485244F21005C3F85C02D4
:10065000C3F86062C3F86452C3F868222122C3F869
:100660008012C3F89802C3F89C62C3F8A052C3F882
:10067000D802C3F8DC62C3F8E052C3F8FC220922B6
:10068000C3F80443C3F80813C3F80C13C3F81423C6
:10069000C3F81C131960D3F8E420002AFBD070BD06
:1006A0000008024001607047006870470EB503FA09
:1006B00001F303EA020301686FEA020201EA0201A0
:1006C00041EA030101600EBD006800EA020020FA61
:1006D00001F0704701807047008870470EB503FA3B
:1006E00001F303EA020301886FEA020201EA020150
:1006F00041EA030101800EBD008800EA020020FAF1
:1007000001F0704701707047007870470EB503FA2A
:1007100001F303EA020301786FEA020201EA02012F
:1007200041EA030101700EBD007800EA020020FAE0
:1007300001F07047F0B500239508ACB2A34208D28F
:1007400051F823600A4F00F1080447F82460013390
:10075000F3E722F003030B445C1A944207D213F828
:10076000016B034D00F1080405F82460F4E7F0BDC7
:1007700000300440684620F007018D4671B5AA4B51
:1007800083B09A7AD2B28DF802205A8892B2ADF82C
:1007900004209A8892B2ADF806209DF802209206B5
:1007A0000FD593F86020D2098DF803209DF803201F
:1007B000012A06D1DA7A42F00402DA729B4B5B6AB4
:1007C0009847994B93F860305E0729D49DF8023022
:1007D0009D0702D5954B1B6A98479DF80230DC07B0
:1007E00002D5924BDB6998479DF80230580717D520
:1007F0008D4B00229A73D97A41F02101D9728C492C
:100800000A709A725A8A92B242F080025A825A8AC6
:1008100022F004021204120C5A82844B9B699847FE
:10082000BDF80430D90719D57F4B00229A7393F88D
:100830006020520712D45A8A560740F1A1805A8A82
:10084000022022F004021204120C5A82774B9B6899
:1008500094E01278022A00F0AD8000BEBDF80430AA
:1008600023F001031B041B0C6BB9BDF8063023F009
:1008700001031B041B0C002B00F0D080BDF80650B8
:100880000124ADB23FE0BDF80430012423F00103A0
:100890001B041B0CADF80430BDF80450ADB2002DA4
:1008A000E3D06D08E80726D55F490122CB8802FA1C
:1008B00004F69BB2B6B223EA0603CB8091F860300F
:1008C000590713D4230103F1804303F58623B3F8BA
:1008D000021101F0040189B2002972D1B3F802219A
:1008E000920678D4514B20465B6898474E4AD3888D
:1008F0009BB21E43D6800134E4B2D0E76D08E8070E
:1009000004D40134E4B2002DF8D187E04649012235
:100910000B8902FA04F69BB2B6B223EA06030B81F6
:1009200091F86030590717D4230103F1804303F590
:100930008623B3F8061101F0040189B2002955D1CC
:10094000B3F8062152065BD4B3F806311B0762D414
:10095000364B20461B689847334A13899BB21E4387
:100960001681CEE7324A117801F0FF04D9B95B8ACB
:10097000DD077FF573AF20462C4B9B6898476DE7EA
:10098000588A00F0100080B20028EBD05A8A92B248
:1009900042F080025A82588A244B00F001009B6882
:1009A00080F00100EAE7117801297FF452AF1F4B74
:1009B0001B69E3E75B8ADC077FF550AF1B4BDB6805
:1009C000DCE7B3F8021121F004010904090CA3F8D3
:1009D0000211114682E7B3F8022141F0020122F030
:1009E00020021204120CA3F802217BE7B3F80611CF
:1009F00021F004010904090CA3F8061111469FE730
:100A0000B3F8062141F0020122F040021204120C58
:100A1000A3F8062198E741F0040199E703B0BDE887
:100A200071408546704700BF003004400800002038
:100A3000C40C0020684620F007018D46F1B5002661
:100A400037462C4B82B0D3F80052EDB2002D4CD07B
:100A5000EB0721D5F3B21A0102F1804303F5862397
:100A6000D3F8041221F00101C3F80412D3F80412E0
:100A700001F0F0018DF807109DF80700D3F804127B
:100A8000D3F80442C0B2E40509D5D3F804224027C4
:100A900022F48072C3F804226D080136D6E702F111
:100AA000804303F58623C1F340010009D3F80832DF
:100AB00041B1020102F1804202F58622B2F8024100
:100AC000E40409D40B4A92F860205207E4D40A4A9D
:100AD000946A3A46A047DFE7B2F8024124F4805412
:100AE0002404240CA2F80241ECE702B0BDE8F14076
:100AF00085467047003004400800002030B5012AC8
:100B0000049C4ED18A0700D500BE1B0103F1804230
:100B100002F5862202F50275C2F808129DF80C2033
:100B2000000100F18040022A00F5862023D1B0F8B0
:100B3000062192B242F40062A0F80621B0F8062124
:100B40006FEA42426FEA524292B2A0F80621B0F830
:100B5000062192B242F40052A0F806216C6004B360
:100B600003F1804303F58623D3F8042242F0010207
:100B7000C3F8042230BDB0F80631C3F30E03A0F869
:100B80000631B0F8063123F400631B041B0CA0F8F7
:100B90000631B0F8063123F400531B041B0CA0F8F7
:100BA000063130BD70B516460D46069A002845D070
:100BB000002943D0012E4FEA001432D1A90700D5F5
:100BC00000BE1B0103F1804101F58621C1F80852E6
:100BD00001F502769DF8101004F18040022900F51D
:100BE000862009BFB0F80221B0F8021192B242F497
:100BF000805215BF21F48051A0F802210904059A02
:100C000018BF090C03F1804318BFA0F8021103F5C7
:100C100086237260D3F8042242F00102C3F8042252
:100C200070BDFFF787FD04F1804000F58620B0F825
:100C300002319BB243F00103A0F8023170BD70B5E0
:100C400000019DF8105000F1804404F58624D4F88A
:100C500004622D01EDB23543C4F80452D4F80452B5
:100C60005B0245EA4101C4F80412D4F8041203F40B
:100C7000C06341EA8202C4F80422D4F804221A4371
:100C8000059BC4F80422C4F80832D4F8043243F0B7
:100C90000803C4F8043270BD73B504464078227866
:100CA000012814BF012102216388AAB193FBF1F34B
:100CB000072B11DD4A49C3F3CC038A730021DD07FA
:100CC000CAB201F1010101D45B08F8E742EA00135E
:100CD000434ADBB282F862302178A38821B1404ACE
:100CE000DB089173A2F8643063782578012B3C49C6
:100CF00006D1B1F84223AB4092B222EA030306E0E8
:100D000043B9B1F842230123AB4013439BB2A1F88E
:100D1000423300E000BE2089217D2B01E5B110F0B7
:100D2000070619D10139CAB21E2A15D803F180422B
:100D300002F5862289B2A2F80061A2F80011B2F889
:100D40000011C90201F47841A2F80011B2F80011B3
:100D500089B20843A2F8000103F1804303F586231A
:100D6000B3F8022192B242F04002A3F80221A27924
:100D7000012A2AD1217B02290ED1B3F8021189B2AE
:100D800041F48061A3F80211B3F8021189B241F471
:100D90008051A3F8021110E0B3F8022122F480621E
:100DA0001204120CA3F80221B3F8022122F480529B
:100DB0001204120CA3F802210022A369E079019326
:100DC000009501210323FFF73AFF05492078CA88DF
:100DD0000123834013439BB2CB8002B070BD00BFA0
:100DE0000030044073B5044640782278012814BFCF
:100DF000012102216388AAB193FBF1F3072B11DDD6
:100E00004E49C3F3CC038A730021DD07CAB201F156
:100E1000010101D45B08F8E742EA0013474ADBB25C
:100E200082F863302178A38821B1444ADB089173AA
:100E3000A2F8663063782578012B404906D1B1F8D5
:100E40004023AB4092B222EA030306E043B9B1F873
:100E500040230123AB4013439BB2A1F8403300E091
:100E600000BE2189207D2B01E5B1D9B111F0070623
:100E700018D11F2816D803F18042013802F58622C6
:100E800080B2A2F80461A2F80401B2F80401C00221
:100E900000F47840A2F80401B2F8040180B20143E2
:100EA000A2F8041103F1804303F58623B3F8062169
:100EB00092B242F08002A3F80621B3F8062122F094
:100EC00001021204120CA3F80621A279012A2AD1E8
:100ED000217B02290ED1B3F8061189B241F40061D9
:100EE000A3F80611B3F8061189B241F40051A3F832
:100EF000061110E0B3F8062122F400621204120C6D
:100F0000A3F80621B3F8062122F400521204120CB1
:100F1000A3F806210022A369E0790193009500213E
:100F20000323FFF78CFE054920780A8901238340BB
:100F300013439BB20B8102B070BD00BF0030044070
:100F400070B58EB06A466D46114B03F130061446FB
:100F500018685968083303C4B3422246F7D11868A9
:100F60001B7920602371002029463522FFF7E2FB20
:100F7000084A0823D373538A9BB243F00203538277
:100F8000D38823F001031B041B0CD3800EB070BD6B
:100F90000C7700000030044070B500239508ACB217
:100FA000A34208D20B4C00F1080654F8264041F841
:100FB00023400133F3E722F003030B445C1A94420D
:100FC00007D2044C00F1080514F8254003F8014B42
:100FD000F4E770BD0030044070470000014B1A79FF
:100FE000DA707047C20A0020402AF0B50C4611465C
:100FF00001D100BEF0BD012C31D1040104F18044C7
:1010000004F58624B4F80621160520D52B4A2C2594
:1010100005FB00252F691646CFB9EA69BAB12F89B9
:10102000B2FBF7F507FB15228AB9B4F80221D50700
:10103000FBD42C2202FB0064A2699B1A2362204B82
:101040001B681B69002B38D0BDE8F0401847B4F886
:1010500002319BB243F00103A4F80231F0BD64BB3E
:10106000184A2C2404FB0024226932BBE26922B313
:101070002689B2FBF6F506FB1522F2B9A2699B1A86
:101080002362040104F1804404F58624B4F80621A7
:10109000120558BFB4F80651094A5EBF25F0010594
:1010A0002D042D0C126858BFA4F80651546924B1C0
:1010B0001A462346BDE8F0401847F0BDDC09002081
:1010C000BC0C0020D00A0020F0B58A0785B02ED4D1
:1010D0002F4C2C2303FB004393F806C0BCF1010FF7
:1010E0000FD1DA799C69120102F1804202F5862261
:1010F000D2F80822121B1A62DB699A4217D000BE8E
:1011000015E05F6A1D6A1E7B3D44022E9F621D62D0
:101110000DD1DE69B54212D307D11A69012A06D171
:101120002FB11B899F4202D309E000BE07E0194B93
:101130001B681B6953B305B0BDE8F04018472C236A
:1011400003FB00410027AE428F6200D200BE434342
:10115000E718B7F808E0711B8E4594BFC7F824E084
:101160007962E75C0C4B39015B5A9B07FAD42C235C
:1011700003FB00440220A169E3798DE84100606A25
:101180002944029062463846FFF70CFD05B0F0BDD9
:10119000DC090020BC0C002002310440054AD37A4F
:1011A00043F00203D372044BDA781A710622DA7024
:1011B000704700BF00300440C20A00200C4B0022E0
:1011C000DA700C4B1A81DA8802F00102DA800A4BDD
:1011D0004FF40012C3F880214FF48012C3F880212D
:1011E000064B1B685B680BB1FF201847704700BFB8
:1011F000C20A00200030044000E100E0BC0C0020E6
:101200000B072DE9F34706460D4611D06A4B1B68C4
:101210005C69002C00F0CD80684A2C2303FB062378
:1012200030461A6A2946234602B0BDE8F0471847FF
:10123000030103F1804404F58624B4F806215F4FCE
:1012400012F0010F09D12C2303FB0672D569116A34
:101250008D4280F0968000BE93E04FF02C0A0AFB8E
:10126000007A03F1804303F586239AF80680B3F8E9
:101270000891B8F1010F1FFA89F941D1B4F806318C
:1012800013F4006F9AF807304FEA031329D003F1E3
:10129000804202F58622D2F8041203F1804321F045
:1012A0000101C2F80412B4F8062103F58623C2F343
:1012B0000E02A4F80621D3F80832DAF818105B1AE7
:1012C000CAF82030B9F1000F01D101234DE01944D3
:1012D0004A46FFF761FEDAF820304B44CAF8203066
:1012E000F3E7374A42F8039003F1804303F586237E
:1012F000D3F8042242F00102C3F80422022334E0AE
:10130000B9F1000F0ED0DAF82030DAF818104A469A
:101310001944FFF741FEDAF82030CAF828904B4410
:10132000CAF820302C2202FB0672137B022B16D146
:10133000136902F11801012B136A0BD149688B4222
:1013400006D2936A11898B422CBF002301230CE043
:1013500009D1BAE74A689342B7D005D303E01389AD
:10136000926A9A42B1D900BE0023B4F8062122F055
:1013700001021204120CA4F80621002B3FF463AF03
:1013800014E05E43BC1923896A1A934294BF6362D6
:1013900062620023A362B85DA279A669E379247B27
:1013A00031448DE83000FFF7A9FB02E0012B3FF448
:1013B0002DAF02B0BDE8F087BC0C0020D00A0020A1
:1013C0000C32044010B50B4C002323706370A370E3
:1013D000E370094B04221870084BA071DA7200F018
:1013E0003FFD074A537843F0400353700223E370F4
:1013F00010BD00BFC20A0020B80A0020DC0900208E
:1014000000300440014B1860704700BFC00C002042
:10141000014B1860704700BFBC0C0020094A2C2308
:1014200003FB0023000100F1804000F5862001222B
:101430009A72B0F802319BB243F01003A0F8023167
:10144000704700BFDC090020094A2C2303FB00235E
:10145000000100F1804000F5862001229A72B0F868
:1014600006319BB243F02003A0F80631704700BF5D
:10147000D00A0020064B00221A709A7204211A73B7
:101480009A610822D97218815A6200F0E1BD00BF4A
:10149000DC090020064B00221A629A621A899861C0
:1014A000D9618A4294BF5A625962184600F0DCBD85
:1014B000DC090020114A10B50321D1701049042025
:1014C0000023C8720F4913705370937013734978D7
:1014D000C9060FD593710C4C402023706370638054
:1014E000A380E380FFF7C6FF2046BDE81040082137
:1014F000FFF7D0BF01219171EDE700BFC20A0020C4
:10150000DC09002000300440BA0A002038B510F091
:101510000305214C0FD0214B00221A705A705A80BB
:101520009A80DA801E4B1B689B6903B1984704239D
:10153000E3721A482AE0E37A062B2CD1216AE36988
:1015400099420FD2A069A26A5B1A0244A261228961
:10155000A5629A4294BF626263622046BDE8384049
:1015600000F092BD0E4B1B689B6903B198470422A3
:101570000A48E2720B4A0023A3622362E3616362BA
:101580000370437043808380C38093730821BDE858
:101590003840FFF77FBF38BDDC090020BA0A0020C1
:1015A000BC0C002000300440F8B510F003050746DD
:1015B000264C0FD0264B00221A705A705A809A80FF
:1015C000DA80244B1B68DB6903B198470423E3727C
:1015D0001F481CE0204600F091FDE37A072B33D131
:1015E000236AE1691C4E8B4213D11A4B1B68DB69DD
:1015F0000BB13846984716480023B3730370437005
:1016000043808380C3800423E372482373820821CC
:101610000BE00ED2402272822289C91A914228BF61
:101620001146A0696162A5621844BDE8F840FFF761
:1016300031BF074B1D705D705D809D80DD80042390
:10164000E37260237382F8BD00BEF8BDDC090020A0
:10165000BA0A0020BC0C002000300440064B0022D7
:101660001A629A621A899861D9618A4294BF5A6251
:101670005962184600F008BDDC090020F0B50023CF
:1016800085B010F0030F01930293934D934C08D053
:101690000422EA72237063706380A380E380204693
:1016A00034E2284600F02AFD6B6A082B40F02182C4
:1016B00020780523EB7210F0600340F00A82637813
:1016C0000B2B00F28882DFE813F0E400A70186020A
:1016D0005301860295000C002502D400AE00FF01E4
:1016E000FB017F4BDA781E46022A40F2748207061D
:1016F00040F1718210F01F0060D16088030A013B45
:10170000062B00F26882DFE813F0070038001800AB
:10171000660266022300410010F0FF0F40F05B827A
:10172000A388002B40F057826E4B1B681B68002B70
:1017300000F0518202A8984708E06A4B1B689B683A
:10174000002B00F04882C0B202A998470190E1E165
:10175000654B1B78002B40F03E8210F0FF0F40F0ED
:101760003A82A388002B40F036825E4B1B685B6890
:10177000002B00F03082B079E6E75C4B1B689F6875
:10178000002F00F028820020022113E0564B1B7826
:10179000002B40F0208210F0FF0F40F01C82A08848
:1017A000002840F01882514B1B689F68002F00F002
:1017B0001282072102AAB379B847C7E7012808D1E6
:1017C0004A4A12689668002E00F005826188090A6C
:1017D0000CE0022840F0FF816188090A00F0FB81DB
:1017E000424A12689668002E00F0F58102AA9B79A1
:1017F000B047ABE73A4AA378D17803F07F030529D5
:10180000137000F08781032904D1002B00F082813E
:10181000042306E0042940F07D81002B40F07A810A
:101820000323D37076E12E4BA078DA78032A00F0F8
:101830007181042AD87106D1002800F06B8105223D
:10184000DA702A4A0DE0052A40F06481274A40B93F
:101850000421D97013685B68002B00F05B81984706
:1018600058E112681268002A00F054819979904773
:1018700050E16288194B002A40F04C819A88002A76
:1018800040F04881DB88012B40F04481184A0192E6
:101890001DE1134AD378042B2ED162880F4B002A06
:1018A00040F038819A88002A40F03481DB88022B8E
:1018B00040F0308100F01F00012809D005D3022834
:1018C00040F028810B4AAB7A3AE00A4B012200E053
:1018D000084B1A804AE000BFDC090020BA0A002049
:1018E000C20A0020C00C0020B80A0020BC0C002056
:1018F000C90A0020AC0B0020052B40F00B81618849
:10190000AB4B002940F00681DE88022E40F00281B8
:1019100000F01F00012822D019D3022840F0FA80DD
:101920009B88A44A13F0800F0DBFA34903F07F03E7
:101930002C212C2014BF01FB035300FB03139B7AC3
:10194000003318BF0123138001920223BFE0137BF1
:1019500098495B0043F001030B800191F5E79888FB
:101960005378984200F2D680924B19800193ECE7AD
:10197000E2888F4B002A40F02E815A88012A03D03A
:101980000DD3022A40D026E1C10640F024818B4BC2
:10199000D978032940F21F811A7300BEBAE000F023
:1019A0001F00022840F017819A8812F0FF0300F010
:1019B00012818249C978052940F00D8112F0800F0B
:1019C0004FF02C0210D003F07F0302FB03521B01E7
:1019D00003F18043012103F586239172B3F80221BC
:1019E00092B242F010024FE0734902FB03121B0156
:1019F00003F18043012103F586239172B3F8062198
:101A000092B242F0200258E0C20640F0E4801B7916
:101A1000002B40F0E0807DE0E288654B002A40F03A
:101A2000DA80664AD178032940F2D580598839B1E5
:101A3000012940F0D08010F01F006BD1107369E0D5
:101A400000F01F00022865D19A8812F0FF0361D0D0
:101A500012F0800F4FF02C0219D003F07F0302FB2D
:101A600003521B0103F1804303F586239172B3F8FF
:101A7000022122F010021204120CA3F80221B3F882
:101A8000022192B242F04002A3F8022142E04A4809
:101A900002FB03021B0103F1804303F586239172CD
:101AA000B3F8062122F020021204120CA3F806213A
:101AB000B3F8062192B242F08002A3F8062129E091
:101AC00062883E4B1A7225E03D4B0193012302933D
:101AD00020E0202B01D0402B7DD13A4B1B68DB68E6
:101AE000002B78D0204601A902AA9847012872D17C
:101AF00010E000BE6FE0314B1A78334B1A700023B0
:101B00002B48237063706380A380E3800821FFF774
:101B1000C1FC6BE02C4A00239373E3882449002B1B
:101B200032D14820039350820422EA724A78052A6F
:101B300008D1039341F28733039A9A42DBD8039B7F
:101B40000133F6E7032ADAD14A88022AD7D1039370
:101B500041F28733039A9A4202D8039B0133F6E796
:101B6000A3881B0A013B032B40D8DFE803F00204E3
:101B7000080A022200E00422134BDA7336E0012245
:101B8000FAE7FFF7DDF931E04020508291F90020BB
:101B9000002A1BDA01980622EA7200B900BE029AF6
:101BA0009A4288BF02930299FFF758FD1EE000BFDA
:101BB000BA0A0020AC0B0020D00A0020C20A002084
:101BC000CA0A0020BC0C0020003004400723EB723E
:101BD000019802999BE70423EB7200232370637042
:101BE0006380A380E380024B60225A8205B0F0BD7F
:101BF000003004402DE9F04707462F488C46847991
:101C00009DF820909DF824809DF828E09DF82C6098
:101C10000C993CB9701EC0B2022812D8274C34F877
:101C2000100013E0012C0FD1012E03D005D3032E99
:101C30000ED902E040F2FF3008E04FF400700024BB
:101C400007E04FF4007004E04FF40070012400E05E
:101C50004020834203D89A4201D3012C02D000BE17
:101C6000BDE8F087DFF858A02C2505FB07A5B2EBEF
:101C7000430FA8BF6C704FF02C0404FB07F4BCBFEB
:101C8000002068700AEB04004280038100F1080222
:101C900000230AF80470A0F804C080F8149080F8BB
:101CA000068080F807E09370D3701671836101613C
:101CB000BDE8F04700F00CB9C20A002042770000EE
:101CC000DC0900202DE9F04707462F488C4684792F
:101CD0009DF820909DF824809DF828E09DF82C60C8
:101CE0000C993CB9701EC0B2022812D8274C34F8A7
:101CF000100013E0012C0FD1012E03D005D3032EC9
:101D00000ED902E040F2FF3008E04FF400700024EA
:101D100007E04FF4007004E04FF40070012400E08D
:101D20004020834203D89A4201D3012C02D000BE46
:101D3000BDE8F087DFF858A02C2505FB07A5B2EB1E
:101D4000430F28BF6C704FF02C0404FB07F43CBF1A
:101D5000002068700AEB04004280038100F1080251
:101D600000230AF80470A0F804C080F8149080F8EA
:101D7000068080F807E09370D3701671836101616B
:101D8000BDE8F04700F0F8B8C20A0020487700002C
:101D9000D00A002073B500B900BE01B900BE0F4CD7
:101DA0002C2303FB004300259961DA6103F120062F
:101DB0001D629D6222B11B89934294BF7360726061
:101DC0002C2358432518EB79205CAC792D7B0192AC
:101DD00000952246FEF792FE02B070BDD00A0020A8
:101DE000F0B585B018B900BE002935D100E009B9B9
:101DF00000BE31E0194C2C2625464643A3195F78D6
:101E0000A855012F4FF000071F629F621F7B14BF70
:101E100001240224022F9961DA6103F1200605D121
:101E20005B889A4294BF7260736009E0032F01D00F
:101E3000012F05D11B895C43944294BF746072608A
:101E40002C2303FB0054A579E37900970192626A81
:101E500002922A46FEF7A6FE05B0F0BDDC0900207E
:101E6000184B002213B51A70174B032283F87F20FA
:101E7000154B93F87F20D2B28DF807209DF80720EC
:101E800002F0FF01002AF3D1104A4FF48014997236
:101E9000C2F8804114604FF40014C2F8804114600D
:101EA0001981DA88012802F00102DA8002BF5A782B
:101EB00002F0DF025A70044B0122A3F8482302B05B
:101EC00010BD00BFC40C00200030044000E100E061
:101ED000037800221B0103F1804303F58623A3F856
:101EE0000221B3F8022122F004021204120CA3F81A
:101EF0000221B3F8022122F010021204120CA3F8FE
:101F00000221B3F8022122F020021204120CA3F8DD
:101F10000221027B022A10D0032A07D0012A28D1ED
:101F2000B3F8022192B242F480421BE0B3F80221DE
:101F300022F480421204120C14E0B3F8022122F4BD
:101F400080421204120CA3F802218279012A11D1D5
:101F5000B3F802216FEA42426FEA524292B2A3F80A
:101F6000022107E0A3F80221B3F80221C2F30E0216
:101F7000F5E700BEFEF790BE037800221B0103F1D7
:101F8000804303F58623A3F80621B3F8062122F047
:101F900004021204120CA3F80621B3F8062122F061
:101FA00040021204120CA3F80621B3F8062122F015
:101FB00020021204120CA3F80621027B022A2AD066
:101FC000032A14D0012A40D1B3F80621C2F30E022D
:101FD000A3F80621B3F8062192B242F48042A3F896
:101FE0000621B3F8062192B242F480522AE0B3F8F7
:101FF000062122F480421204120CA3F80621B3F841
:10200000062192B242F48052A3F80621B3F80621C9
:10201000C2F30E0216E0B3F8062122F48042120445
:10202000120CA3F80621B3F8062122F48052120400
:10203000120CA3F80621B3F806216FEA42426FEAB8
:10204000524292B2A3F8062100E000BEFEF7CABEDB
:10205000044A002393735382D3889BB243F0010355
:10206000D380704700300440C37A042B01D1002292
:1020700004E003F0FD03052B02D10222014B1A708C
:10208000704700BFC40C0020037870B5002B30D11E
:102090008269EAB1037BDBB9416A8D08ACB2A34225
:1020A00005D252F82360134C01332662F6E721F083
:1020B000030313449C1A8C4205D213F8015B0D4CA8
:1020C00084F82050F6E7436A026A8362134403628D
:1020D000C37A062B02BF084B01221A70C369026A39
:1020E0009A42044A2FBF0A23538A9BB243F0020349
:1020F000538270BD00300440C40C002037B51A4B29
:102100000022ADF806209A73027852BB826942B36E
:1021100014461B8B03F07F03ADF80630BDF8063084
:102120009BB2990802EB81018C4204D00E4D2D6ABE
:1021300044F8045BF8E723F0030111448C1A9C4235
:1021400005D2094C94F8204001F8014BF6E7BDF8A0
:102150000630026A9BB213440362BDF806309BB29C
:10216000836203B030BD00BF0030044070B5194C2D
:102170002478012C06D1184C0223637000232026FA
:102180001D4618E084B923B9144C02236370124D24
:1021900005E0012B0BD1104C0223104D6370072377
:1021A0006B7020231E4606E000BE002300E023469D
:1021B0001E461D461C4658B9022902D1166020460B
:1021C00070BD072905D105B900BE1360284670BD52
:1021D000002070BDCC0C00208800002048000020AA
:1021E000024B032201201A70FFF72EB9F00C0020D9
:1021F000034B03221A70012002490D22FFF7F0BDA4
:10220000F00C002038000020024B032201201A703D
:10221000FFF704B9F00C0020324B0022F0B51A7021
:10222000314B01201A70314B81421A70304B87B00C
:102230009A605A6018732F4B1A605A609A601A732A
:102240005A739A73DA731A745A749A74DA741A7520
:102250005A759A75DA751A765A769A76DA761A7700
:102260005A779A77244B1A60244B1A60244B1A60D1
:1022700001D1244B01E049B9234B9A7DDC7D42EA30
:1022800004249A7F5B7F43EA022201E000BE1446E9
:10229000012500260227134628464FF48071009539
:1022A0000195029603970496FFF70CFD2846114905
:1022B0001F22FFF76FFD23460095019502950397B6
:1022C000049628464FF440712246FFF793FC0F4BCB
:1022D0001D700F4B1B681B680BB1304698470120DF
:1022E00007B0F0BDFE0B0020AE0B0020F00C00206C
:1022F00038000020D00C0020B00B0020B80B0020CC
:10230000B40B00208800002048000020FD0B0020B6
:10231000C80C0020034B024601201870024B1968BC
:10232000FFF738BDF00C0020B00B0020838870B59B
:102330000D461646002B45D14488002C42D14378E7
:10234000FE2B02D0FF2B0ED03EE0204B204C1B6812
:10235000DB690BB900BE02E098470138207001200C
:1023600030602C6070BDC38873BB1A4A012413709F
:10237000194A1A4913701A4A20461370194A0B60F9
:10238000936053601473184A4B601360174A8B6054
:102390001360174A0B7313601F224B738B73CB733D
:1023A0000B744B748B74CB740B754B758B75CB7531
:1023B0000B764B768B76CB760B774B778B77FFF75D
:1023C000E9FC01E0002070BD204670BDC80C002073
:1023D000C80B0020FE0B0020AE0B0020D00C00200C
:1023E000F00C002038000020B00B0020B80B0020BB
:1023F000B40B002008B5054B042201201A70FFF72A
:102400000DF8BDE808400120FFF71EB8F00C0020D1
:1024100008B50F4B002119700E4BDA8822F002022A
:102420001204120CDA80A3F81211C3F814121A89DC
:1024300022F002021204120C1A81A3F81611C3F83A
:102440000412054B1B685B6A03B19847012008BD65
:10245000FD0B002000300440C80C00202DE9F04F97
:10246000B24E85B03378DFF8FC92DFF8FCA2042B83
:1024700000F27D83DFE813F00500EF0284023C03E5
:10248000760399F80030022B40F071831F2903D0A6
:10249000A74B02221A7367E3A64AA54D516810683C
:1024A0006960A549D37B8842944640F0DF81507B28
:1024B000A24A12788242C0F0D9819CF80E20013ADB
:1024C0000F2A00F2D381AA6802B100BE232B00F0CC
:1024D0009B8015D8032B00F04981994ADFF874825C
:1024E000984C07D8002B40F0B2811370C8F8003028
:1024F0002360A5E1122B1BD01A2B00F00681A6E168
:10250000282B8F494FF0000200F0AF80DFF84482A3
:102510008C4C02D8252B3AD099E12A2B00F0398136
:102520002F2B40F094810A70C8F80020226087E1C8
:10253000012313700023C8F8003023609CF8127048
:102540009CF813307B4A43EA07279CF90C30002B98
:1025500001DB276028E093689F4240F07681137C7E
:10256000DA0702D4002B40F08781774B1B681B6A87
:10257000002B47D003A99847002843D0039BC8F8F5
:1025800000009F4201D82760CDE0236070E19CF9F4
:102590000C300127002BC8F8002022600F70DFF8F4
:1025A00094B103DB08232360052466E19BF8173010
:1025B000DB0700F16181644B1B685B6813B302A900
:1025C00003AA98479BF80D100C235943029A5F48C1
:1025D000013A4FEA126E431800F801E0110C5970ED
:1025E000DA70110A039A9970110E1971110C597150
:1025F000110A9A609971DA71C8F8003008232360D3
:102600003C463AE1032438E19CF817309CF8164028
:1026100043EA04244C4B1B685B6813B102A903AA6C
:102620009847029A4A4B110E1971110C5971DA71BF
:10263000110A039A9971110C5972DA72110A404AFF
:10264000997201211170434A0C2C13603D4B4FF0DD
:102650000C021A60404B4FF005029A704FF02002B6
:102660001A7314BF07240C4607E10124374F0C707E
:102670000C2101FB00719CF816B09CF8177089685A
:1026800047EA0B274F439CF90CB00392BBF1000FB4
:102690009CF811209CF812809CF813E09CF81430F0
:1026A000DFF8A0B0DCF808C0A4BF0524CBF80070A8
:1026B000674518BF0424DFF890C0DCF800C0DCF8E0
:1026C00010C0BCF1000F00F05B82012C40F0598279
:1026D000120642EA084848EA030848EA0E2801FBC5
:1026E00008F83B4603A94246E047039B002B00F055
:1026F0004782184AB84294BFCBF80000CBF800706C
:102700001360164BC3F80080B7E001211170144A22
:102710009CF81330C8F8002004229342226000F293
:10272000A78040F0A7800124A7E000BFF00C0020A4
:1027300038000020D00C002055534243C80B002025
:10274000FC0B0020B80B0020C80C0020CC0B002094
:10275000BC0B0020B00B0020A8000020B40B002010
:1027600034000020AE0B0020FE0B00209CF810204F
:102770009CF81330D1077FD4964A012414709649EF
:10278000964A1160964A1360002B71D0122B74D9AF
:1027900070E00223934F0B700C2101FB0071DFF8F6
:1027A00048C289689CF816B09CF81770C8F80020D9
:1027B00047EA0B274F439CF813309CF90CB0DFF825
:1027C00030822260BBF1000F0392C8F800209CF811
:1027D00012E09CF8112001939CF81430DCF808C03A
:1027E000B6BF276001240524674518BF0424DFF81D
:1027F00004C2DCF800C0DCF814C0BCF1000F00F02B
:10280000C881012C40F0C6814FEA026B4BEA0E4BA7
:102810004BEA030B019B03AA4BEA032B01FB0BFBC7
:102820005946E047002800F0B4816C4B039A1860C9
:102830006B4BC8F800B0BA4294BF1A601F601CE02E
:10284000DCF80830002B3FF46EAF042415E0614B38
:1028500001221A70614A00231360614A0224136046
:102860005D4B05229A7024221A7306E00A2404E0C4
:10287000072402E0062400E009245B4B013C996830
:10288000A960092C00F2D580DFE814F00A004200AC
:10289000D3004C00750031001E00D3004000D3006F
:1028A00000232B734B4B1878022802D14C4B18682D
:1028B00048E0012804D1494B1968494B1A684FE098
:1028C000002840F0548109E103232B73414B187811
:1028D000022804D1424B186800284ED032E001286B
:1028E00040F045813E4B1A68002A46D036E0394B0D
:1028F0001B78022B06D13A4B1B68002B00F0378166
:10290000022317E0012B40F0328135E0012333E050
:1029100001222A7389B393F90C30002B2DDBFFF7CA
:102920005FFC2AE02B4A107802280ED12C4B186845
:1029300020B901232B73FFF753FC19E18842DFD83C
:1029400001232B73FFF7E6FC12E101280BD1244B86
:102950001A68002AEDD08A420DD828731F4B1968D7
:102960000223337062E093F90C300122002B2A73AA
:10297000BFF68EAD01E002232B73FFF745FCF7E0B5
:102980009AF80030012B62D1184B1A7B032A09D127
:10299000124A00231360124A1360154A1360134A47
:1029A0001373EAE7002A47D10D4C996820688142E9
:1029B00002D3091A996000E000BE9B680B4DDBB999
:1029C000064A00231360064A1360094A1360074A47
:1029D000137383E0FC0B0020A8000020B00B002044
:1029E000B80B0020CC0B0020D00C002038000020B9
:1029F000B40B0020C80C00206A4A12681769C7B1DE
:102A000069490A6802440A606849487B03A9B847D3
:102A1000AB680246984200F2AA80654B0399206099
:102A2000196000232B73022333700120FFF7D8F9BC
:102A30009EE002232B7397E0012A40F098805C4AC5
:102A4000002313605B4A1360574A136095E75A4BA3
:102A50001B78032B48E099F80030022B41D1574CEA
:102A6000237B032B94D0002B2FD1524DA3682A68CF
:102A7000934202D39B1AA36000E000BEDFF82481DA
:102A8000D8F800309B69002B3FF402AD474F464E0B
:102A9000787B31689847A368002B91D03368296808
:102AA0001944D8F8003031605B691BB1787B03AA08
:102AB00098470346A2680398904228BF10463C4AB4
:102AC00028601360002323733CE7012B50D1384A60
:102AD00000231360374A1360334A1360FFF788FB03
:102AE00046E0374B1B78042B41D1820740D53EE0AE
:102AF0009AF80020D2B2012A27D1304800238360FF
:102B0000436002732A48294903602A480B60036026
:102B100025484B60036010461F228B600B734B737C
:102B20008B73CB730B744B748B74CB740B754B75AD
:102B30008B75CB750B764B768B76CB760B774B778D
:102B40008B773370FFF726F912E01B4B1B78032BB2
:102B50000ED183070CD5194B1A7B032ABED1002254
:102B60001A73BBE704233370FFF744FC00E000BE98
:102B700000238AF8003089F8003005B0BDE8F08FF6
:102B800003240B4A00231360074ACBF8003013607C
:102B900073E60324064A00231360064AC8F800308F
:102BA00013606AE6C80C0020B40B0020D00C002093
:102BB000B00B0020B80B0020FE0B002038000020D6
:102BC000AE0B002008B511F00F0F054B084614BFDF
:102BD0000421022119701146FFF740FC012008BDB5
:102BE000AE0B002008B511F0020F054B14BF0322F5
:102BF0000122084600211A70FFF730FC012008BDB1
:102C0000FE0B0020034B1860034B04481970FEF7BD
:102C1000FFBB00BFC80C0020CC0C002068000020C7
:102C20004109012300F01F00024A834042F821308D
:102C3000704700BF00E100E04309012200F01F00DF
:102C400002498240603341F82320704700E100E0F0
:102C500000F0704303EB8101C0F3130001F1007138
:102C6000400101230B50704700F0704303EB8101DA
:102C7000C0F3130001F10071400100230B507047B5
:102C800000F0704303EB8101C0F3130001F1007108
:102C900040010858C0B270471E4B30B598421A46E2
:102CA00003D01D4B984200D000BE016901B900BE9F
:102CB000436903B900BE904202D0174A904228D11E
:102CC00039B333B30268417B127DD2B2114392060D
:102CD00041730CD4826943699A421AD1BDE83040ED
:102CE00000234361006801210430FFF7BDBF826902
:102CF0009B1A102B28BF102300229A42EAD0846925
:102D0000056901682C5D01320C70816901318161B6
:102D1000F3E730BD340D0020F40C002010B504465C
:102D20000068037A03F00F030C2B4BD8DFE803F0A5
:102D3000074A090F0B4A0D4A4A4A4A4A0B00A36A3E
:102D40003BE0636A39E0236A37E0E36935E0283025
:102D50000021FFF795FF28B1E36A0BB900BE01E03F
:102D600020469847206801212830FFF789FF28B1C5
:102D7000236B0BB900BE01E0204698472068022172
:102D80002830FFF77DFF28B1636B0BB900BE01E06F
:102D900020469847206803212830FFF771FF28B1AB
:102DA000A36B0BB900BE01E02046984720680421C0
:102DB0002830FFF765FF30B1E36B1BB12046BDE85B
:102DC0001040184700BE10BD2DE9F843714B044672
:102DD000984298460E4617466F4B04D06F4A904271
:102DE00013D000BE11E04FF0804202600A2202714F
:102DF0009A6C4FF4806142F080029A64684AC2F88B
:102E000080119A6C22F080020FE0664A4FF4006154
:102E100022600B2222719A6C42F480729A64604A9A
:102E2000C2F880119A6C22F480729A64236800259B
:102E30001D71236801211D7220680830FFF708FF0B
:102E4000206802210830FFF703FF20682946083078
:102E5000FFF7FEFE206804211030FFF705FF206811
:102E600005211030FFF700FF206801213430FFF703
:102E7000FBFE206829463430FFF7F6FE206801216A
:102E80003830FFF7F1FE206805213030FFF7ECFE07
:102E9000206806213030FFF7E7FE20680721303038
:102EA000FFF7E2FE206803213830FFF7DDFE2368DC
:102EB000444583F84450236883F84850236883F8D6
:102EC0004C5002D0354B9C4211D1A66002F0DEFA84
:102ED00044450CBF344B354B1B68DB00B3FBF6F9A4
:102EE0004FEAD913B3F5803F4FEA590501D300BE2D
:102EF0003CE0012B20685FFA83F823D9A5EB83150A
:102F0000A5EBC3134B440C300721A3EB4505FFF79A
:102F10009FFE2268C9F3C73313712368072183F822
:102F2000008020680C30FFF79FFE206807213030BA
:102F3000FFF78EFEFF2D00D900BE2368EDB283F8A7
:102F40003C5013E00C300721FFF782FE236800227B
:102F50001A712368072183F8008020680C30FFF77E
:102F600083FE206807213030FFF77EFE23681F7341
:102F7000002327736373A66063612361A3612362E7
:102F80006362E361A362E36223636363A363E36356
:102F9000BDE8F883340D002000800340F40C0020CD
:102FA00000E100E000000140CC000020D000002043
:102FB0000E4B10B59842044603D00D4B984200D0FA
:102FC00000BE2046FFF700FF206803213030FFF7E6
:102FD0004BFE206802213430FFF746FE20680021B6
:102FE0003830FFF741FE034B636210BD340D002003
:102FF000F40C0020992C0000174BF0B5984203D038
:10300000164CA04200D000BE01B900BE02B900BEFD
:10301000984202D0114B98421DD1E1B1DAB100249F
:103020000368457B1B7DDBB21D4345739D06F7D5C9
:103030000F2A01EB040698BF1346354688BF1023BC
:10304000076815F801EB87F800E0AF1B9F42F7D344
:10305000D21A1C44E4D1F0BD340D0020F40C002041
:10306000114B70B5984205D0104B984202D000BE6B
:10307000C1B900E009B900BE70BD0A7800238AB169
:103080000668347D457BE4B22543A4064573F8D534
:1030900003F11004056801332A70CA5C12B1A3421F
:1030A000F8D1ECE770BD00BF340D0020F40C002017
:1030B0000346184830B5834203D0174CA34200D0D2
:1030C00000BE01B900BE02B900BE834202D0124860
:1030D000834217D1C1B1D2B11868047D587BE4B2E4
:1030E000204358730020E40710D590420FD01C688D
:1030F00024780C541C685D7B247D0130E4B22543A8
:103100005D73F0E7002202E00A4600E00246104646
:1031100030BD00BF340D0020F40C0020164B10B55C
:103120009842044603D01548844200D000BE01B93D
:1031300000BEC02A00D900BE9C4202D00F4B9C4268
:1031400018D1B9B1C02A15D8216221680B7A03F0D1
:103150003F031A430A7294F90400FFF76DFD2068DB
:1031600000210430FFF774FD94F90400BDE810401D
:10317000FFF756BD10BD00BF340D0020F40C002039
:10318000684620F007018D4601B50348FFF7C6FDEC
:10319000BDE8014085467047340D0020684620F0A8
:1031A00007018D4601B50348FFF7B8FDBDE80140B2
:1031B00085467047F40C002010B5064C0146236884
:1031C00033B1054A10689847044A002323601370FE
:1031D00010BD00BF1C0C0020280C00200C0C00208F
:1031E0000E4B13B51A6822F004021A605B6803F0F4
:1031F000010301930023019A0AB919460AE08B42A0
:1032000008D0C45C054A01331461526802F001021F
:103210000192F0E7084602B010BD00BF0060014017
:10322000024B1B6803B11847704700BF100C002009
:1032300008B5084B1B7863B1074B188880B2FFF7BD
:10324000BBFF064B1A6842F001021A601A68D207E7
:10325000FCD408BD0C0C0020200C002000600140B4
:10326000F8B57E4B5E68F2B29E681640B20776D51E
:1032700018697B4D20F4FF442B7824F07F04A4B21E
:10328000C0B2052B66D8DFE803F0036161172B5845
:10329000002C64D0F1285AD1724B0024724A1C8051
:1032A00011681A8892B288541A88013292B21A8030
:1032B0001B889BB2CC5411E0002C50D06B4B1B7878
:1032C000984244D1674A00231380674913880968EC
:1032D0009BB2C854138801339BB2138004233DE092
:1032E000002C34D15F4F604B3A88196892B20A447F
:1032F00012F8013CF12B3B460AD13B889BB2C854E3
:103300003B889BB20B4413F8010CFFF789FF1BE0CD
:10331000574C3A88248892B2A24206D23A8892B296
:1033200088543A88013292B23A801B889BB2A342F9
:1033300015D14C4B188880B20DE044B94A4B1B683C
:1033400058700220FFF738FF2C7008E03CB1FFF7FF
:1033500067FF04E00020FFF72FFF00232B70F30727
:103360007AD53F4C23782646022B20D0052B3CD023
:10337000012B67D13F4D2B889BB2002B30D03E4EA6
:103380002988376889B23846FFF72AFF2B889BB215
:10339000984205D22B881B1A9BB22B80384416E02A
:1033A00000232B80354B1B68C3B1022353E0334D00
:1033B0002B68ABB1324E29683068FFF711FF2B68DC
:1033C000984206D22B681B1A2B6033681844306071
:1033D000F8BD224A936823F00103936003233AE087
:1033E00000BEBDE8F840FFF723BF244C236893B923
:1033F000244B1B6863B1224898472060236853B967
:10340000164A936823F0010393600323337002E0AC
:1034100000BEFFF70DFF2368184D3BB90F4A9368B4
:1034200023F00103936003233370F8BD144C296823
:103430002068FFF7D5FE2B681B1A2B602368184401
:103440002060F8BD054A0020936823F001039360D3
:10345000FFF7B2FE00232370F8BD00BF00600140FB
:103460002C0C0020200C0020280C00202D0C00200B
:10347000000C0020140C0020080C0020240C00205C
:10348000180C0020040C002070B5234C4FF420755C
:103490002668224C754363511423734303F140247F
:1034A00004F580346060A1601D4CB2F5803F1C447F
:1034B000656898BF92B24FEA15454FEA05456560C9
:1034C00098BF6168174B9BBF0A436260A2F58032C8
:1034D00000228CBF1A611A614FF0140202FB06F23F
:1034E00081BF01F5803100F58030D96098600C4BC8
:1034F00013445A6842F4E0025A604FF42073734355
:1035000003F1844303F520130122C3F8C0210022F4
:10351000C3F8CC2170BD00BF4C0C0020C401284270
:1035200008400140300C0020684620F007018D461D
:1035300019B51D4B1D491A68012402F5287041F880
:103540002040142050431A49224401444868042A68
:1035500020F4E0004860174908BF00221A600A6999
:103560000C4662B11449A0680B68042B0CBF002301
:1035700001330B60E168237DFFF786FF10E01A68D6
:1035800014235A430D4B9B5813F4E00308D1064A09
:1035900001201360084A087013604B6803B1984714
:1035A000BDE8194085467047480C002000002842BD
:1035B00008400140300C00204C0C00200C40014021
:1035C000684620F007018D4619B5234B1B6813F49C
:1035D000706F1FD0214A4FF42073116814464B437B
:1035E00003F1844303F52013D3F808322BB11C4BAD
:1035F000022018705B6803B1984722684FF420736B
:103600005A43184B9B582BB1154B032018705B681D
:1036100003B19847104B1B6813F4704F05D0104B43
:10362000042018705B6803B198470F4A0F490123C3
:10363000C2F8C831C2F8803AC2F84834C1F8803ABA
:10364000C2F8C836C1F8843AC2F84839C1F8883A95
:10365000BDE819408546704700400140480C0020F5
:10366000300C00200C0228420000284204002842AE
:10367000154B9A6C42F480129A649A6C42F0F07284
:103680009A640022114B0121D35C013203F01F0028
:1036900043F3C40323F0604323F0030303F16043C7
:1036A000814003F56143202AC3F88010C3F88011DC
:1036B000E8D1054B9A6C22F0F0729A649A6C22F46D
:1036C00080129A64704700BF008003404E7700006C
:1036D0001F2801D900BE7047024B53F820301960F3
:1036E000704700BF707700001F2810B501D900BED9
:1036F00010BD074C0123D4F88820834001F001015C
:1037000022EA030381401943C4F8881010BD00BFAA
:10371000003001407F2816D931B1FF2812D80A4B5A
:10372000803833F810007047074A8BB232F8112006
:10373000824203D001318029F6D10B4603F180008B
:10374000C0B2704700207047F07700001E4A1F4B40
:1037500070B5B0F5805F28BF1346191D31F8043CE1
:103760000A4683B398422ED331F8024C250AE4B2BC
:103770001E19B04221DA082D25D8DFE805F0050929
:103780000E10121416181A00C01A31F8100070BD6D
:10379000C31A03F00103C01A0DE010380BE0203803
:1037A00009E0303807E01A3805E0083003E0503807
:1037B00001E0A0F5E35080B270BD0431002DCDD101
:1037C00002EB4403C9E770BDF0780000AC7900005B
:1037D00002F082BC02F088BC0020704700207047D5
:1037E00090B913445B02B3F1007F0DD802F5A0023B
:1037F00003F120435202934204D952F8040B41F8DA
:10380000040BF8E7002070470120704798B9134473
:103810005B02B3F1007F0ED802F5A002520203F161
:10382000204304399A4204D251F8040F42F8040BA1
:10383000F8E7002070470120704770B9022906D0D0
:10384000032907D0012909D14FF4803303E04FF455
:10385000007300E0012313607047012070478378F4
:10386000C27843EA02224378007843EA022340EA1E
:10387000032070470B0A017043700B0C090E837014
:10388000C1707047024400F8011B9042FBD17047A1
:1038900043690239023B99423DBF4289836A02FB78
:1038A00001300020704700F10B010023DA0142EAE9
:1038B000530310F8012B1344884203F0FF03F5D1A2
:1038C00018467047036810B593B11A46144612F8AB
:1038D000011B1F290AD93A29F8D11A4612F8011BEF
:1038E000944205D1302903D102330360002010BD7A
:1038F0004FF0FF3010BD38B50D46044618B900230F
:103900002B60092038BD0368002BF8D01A78002AF4
:10391000F5D0D98882889142F1D15878FFF75EFFBF
:1039200010F00100EBD123682B6038BD01380A4448
:1039300011F8013B914200F8013FF9D17047CA7E6E
:103940008B7E032843EA022301BF487D0A7D42EAB9
:10395000002243EA024318467047C2F307238A76DF
:10396000CB760378032B01BF120C0A75120A4A7535
:103970007047F8B5C56A00F130070446394640780B
:103980002A460123FFF742FFA0B9236AA269EB1A76
:103990009342E07001D30020F8BDA678012EFAD939
:1039A000A36960781D4439462A460123FFF72EFF9C
:1039B000013EF3E70120F8BDC3780BB1FFF7D9BF93
:1039C00018467047C36A70B5994206460D4611D035
:1039D000FFF7F2FF044670B92A46707806F130010D
:1039E0000123FFF7FDFE00281CBF4FF0FF35012427
:1039F000F56200E00024204670BD0000002370B591
:103A0000C3704FF0FF33C3620546FFF7DBFF044688
:103A1000E8B995F82F2295F82E3243EA02234AF6A8
:103A20005522934215D105F16600FFF718FF0B4EA2
:103A300020F07F40B0420ED005F18200FFF70FFF6B
:103A400020F07F40B04214BF0220002070BD04204F
:103A500070BD032070BD204670BD00BF46415400BC
:103A60002DE9F043002385B00B600F461546FFF7A4
:103A700029FF061EC0F22581984B53F82640002CE2
:103A800000F021813C60237805F0FE0583B1607869
:103A9000FFF7A4FEC1070BD4002D00F0108100F049
:103AA000040303F0FF00002B00F015810A2012E14F
:103AB0000023F0B223706070FFF78EFEC20700F1A2
:103AC00004810DB14307F1D420460021FFF796FF92
:103AD00002281FD104F5FB76002516F8040C10B15E
:103AE0003046FFF7BCFE4DF825000135042D06F1E8
:103AF0001006F2D100255DF8256036B1204631462A
:103B0000FFF77CFF012801D80DE003200135042DCB
:103B1000F1D1DCE004284FF0000600F0DB80012842
:103B200001D90D20D7E094F83C2094F83B3043EACB
:103B30000223B3F5007FF4D194F8478094F846301F
:103B400053EA082804D104F15400FFF788FE8046A8
:103B500094F84070C4F818807B1E012BA770E0D841
:103B600094F83D50ABB26381002BDAD06B1E2B4230
:103B7000D7D194F8429094F8413043EA092919F0DA
:103B80000F0FA4F80890CCD194F8440094F8433077
:103B900053EA002003D104F15000FFF760FE94F8CF
:103BA0003F3094F83E2052EA0323BAD007FB08F1D5
:103BB00003EB19120A449042B3D3801AB0FBF5F517
:103BC000002DAED040F6F570854206D94FF6F57758
:103BD000BD428CBF0327022700E001270235334492
:103BE0003244032F6561E6612362A26210D194F82A
:103BF0005B2094F85A3053EA022392D1B9F1000FB6
:103C00008FD104F15C00FFF72AFEAD00606210E086
:103C1000B9F1000F85D0022F4FEA45000CBF0546D1
:103C200040190B4418BF05F00105636218BF05EB8E
:103C3000500505F2FF15B8EB552FFFF472AF4FF0AA
:103C4000FF332361E360032F4FF0800323712FD1F3
:103C500094F8612094F8603043EA0223012B27D1C5
:103C60002046711CFFF7AEFE10BB94F82F2294F88B
:103C70002E32207143EA02234AF65522934217D18D
:103C800004F13000FFF7EBFD154B984210D104F51D
:103C90000570FFF7E4FD134B984209D104F5067057
:103CA000FFF7DDFD206104F50770FFF7D8FDE06048
:103CB0000D4A2770138801339BB21380E3800020E4
:103CC00009E00B2007E00C2005E0032003E00428B6
:103CD0007FF427AF012005B0BDE8F083540C00202D
:103CE0005252614172724161500C00200129F8B5B5
:103CF00006460C4653D94369994250D20378022BA9
:103D000029D0032B3AD0012B49D101EB5105016A8F
:103D100001EB5521FFF756FE10B14FF0FF30F8BD13
:103D2000316A6F1CC5F308053544304601EB572155
:103D300095F83050FFF746FE0028EED1C7F308078C
:103D40003E4496F83000E30745EA00204CBF0009E6
:103D5000C0F30B00F8BD016A01EB1421FFF732FE3E
:103D60000028DAD1640004F4FF743319344493F862
:103D7000303094F8310043EA0020F8BD016A01EBCD
:103D8000D411FFF71FFE0028C7D1A00000F4FE7079
:103D900030303044FFF763FD20F07040F8BD012063
:103DA000F8BDB1F5001F2DE9F04106460C46076845
:103DB00002D30220BDE8F081CA06FAD185683161DC
:103DC00065B93B78022B01D97B6A33B93B89B3EBE8
:103DD000541FEED97B6AB3611AE01D462946B7F835
:103DE0000A804FEA482844450DD33068FFF77EFF2C
:103DF000431C01461BD00128DBD97B699842D8D2ED
:103E0000C8EB0404EFE738460D46FFF741FDB0610B
:103E1000B3697561002BCCD003EB5423C4F30804C1
:103E200030343C44B361F4610020BDE8F0810120EE
:103E3000BDE8F08101292DE9F84305460C461646F8
:103E40006DD9436999426AD20378022B3BD0032B88
:103E50004BD0012B63D101EB5108016A01EB5821D2
:103E6000FFF7B0FD074600285AD108F10109C8F351
:103E7000080814F00104A84418BF98F83020F3B2E1
:103E80001EBF02F00F0242EA0313DBB2296A88F870
:103E900030300123EB70284601EB5921FFF792FDEA
:103EA0000746E8BBC9F308032B4414B1C6F3071651
:103EB00006E093F83010C6F3032621F00F010E43FD
:103EC00083F8306028E0016A01EB1421FFF77AFDE6
:103ED000074628BB640004F4FF742B1983F8306094
:103EE000C6F3072683F8316016E0016A01EBD411AE
:103EF000FFF768FD074698B9A40004F4FE74303457
:103F00002C442046FFF7ABFC26F0704600F07041D1
:103F100031432046FFF7AEFC0123EB7000E002279F
:103F20003846BDE8F8832DE9F041804605680F4624
:103F300031B9EE68A6B16B699E4228BF012610E038
:103F40002846FFF7D3FE012845D9421C03D14FF084
:103F5000FF30BDE8F0816B6998423DD33E4600E0FA
:103F6000012634466B6901349C4205D3012E02D8E8
:103F70000020BDE8F0810224D8F800002146FFF7B8
:103F8000B5FE30B1012827D0431C25D0B442E9D179
:103F9000EEE7284621464FF0FF32FFF74BFFC0B94E
:103FA00047B96A692B69023A9342EC600AD2013B35
:103FB0002B6107E0284639462246FFF73BFF0028E1
:103FC000EFD006E02B79204643F001032B71BDE8CA
:103FD000F0810128BBD00120BDE8F0810129F8B5AE
:103FE00007460D46046801D80220F8BD636999426E
:103FF000FAD232B1114620464FF0FF32FFF71AFFD6
:1040000008BB38682946FFF771FE064608B900204C
:10401000F8BD0128E8D0411C14D0204629460022D2
:10402000FFF708FF78B9236935465A1C1FBF0133D3
:104030002361237943F0010318BF237163699E4212
:10404000DFD3E4E70120F8BDF8B50446FFF7B4FC80
:104050000546002D42D12378032B37D12679012E36
:1040600034D104F13007384629464FF40072FFF787
:1040700009FC552384F82E32AA2384F82F325223C8
:104080004122722184F8303084F83130612384F881
:10409000323084F8332084F8162284F8173284F8FA
:1040A000141284F8151204F506702169FFF7E2FB7B
:1040B00004F50770E168FFF7DDFBE2696078013223
:1040C000E26239463346FFF7A1FB25710021607893
:1040D0000A46FFF7B2FB003018BF0120F8BD2DE9FA
:1040E000F843836905460F4604680269002B6AD0CD
:1040F00002F12008B8F5001F65D2C8F30809B9F12C
:10410000000F57D141690133836131B92389B3EB82
:10411000581F4FD80023AB6155E06389013B13EA78
:10412000582347D12046FFF7E1FD0128064602D873
:104130000220BDE8F883421C02D10120BDE8F883CB
:104140006369984230D3002FE4D028466969FFF7AD
:10415000EAFE0646002839D00128E9D0431CECD0FD
:104160002046FFF729FC07460028E6D104F130007D
:1041700039464FF40072FFF785FB20463146FFF7C2
:1041800087FBE06263899F420BD20123E3702046E4
:10419000FFF7EFFB0028D0D1E36A01370133E36278
:1041A000F0E7E36ADF1BE7626E6120463146FFF706
:1041B0006FFBA86109F130094C44C5F81080EC612F
:1041C0000020BDE8F8830420BDE8F8830720BDE89F
:1041D000F88300002DE9F04F036885B00021064602
:1041E0000193FFF7DEFD002840F09B804FF0FF09B0
:1041F0004C464FF0FF3373620198B169FFF7E2FB61
:10420000002840F08E80F5692B78002B00F082802A
:10421000E97AE52B01F03F02B2716FD00F0702D5AA
:104220000F2A6BD101E00F2A50D1D6F828B0BBF18C
:10423000000F67D0580606D503F0BF04336995F820
:104240000D90736201E0A3425BD16B7B4B4558D16B
:10425000EF7EAB7E43EA07273FB2002F51D195F89E
:1042600000A001220AF03F0A0AF1FF334FF00D0AC5
:104270000AFB03FA2C4BF95C6B1858786B5C43EA29
:104280000028A2B1BAF1FE0F3BD84046FFF75EFA14
:104290000AF1010103903BF81A000291FFF756FA68
:1042A000039A82422DD1029942468A4603E04FF694
:1042B000FF71884525D101370D2FDBD12B785906A9
:1042C0002CD55AB33BF81A3043B31AE024B9284628
:1042D000FFF7E9FA81451FD0326AD37ADB070DD4A4
:1042E00005F10B0115F8013B12F8010B8D42A3EB10
:1042F000000001D110B914E00028F3D04FF0FF33D3
:104300007362FF2430460021FFF7E9FE00283FF4E6
:1043100073AF06E0042004E0204602E0013CE4B272
:10432000F0E705B0BDE8F08F787C00002DE9F043A0
:10433000D0F8208087B098F80B40054614F0A00410
:104340000668876A40F0A08037F81490B9F1000F32
:1043500001D00134F8E703A841460C22FFF7E6FA42
:104360009DF81730DB0765D588F80B90C5F82890C5
:104370004FF00109404603A90B22FFF7D7FAB9F124
:10438000050F15D94B46B81E30F8022F8AB11021FF
:1043900002F0010E0EEB430313F4803F1CBF83F4C5
:1043A000883383F0210301394FEA5202F0D1EBE761
:1043B0004B46072203F00F0000F13001392988BF76
:1043C00000F13701013A06A810441B0900F8131C3C
:1043D000F0D106A97E20114401F8140C934201D1BA
:1043E000434405E018F803102029F9D00133F5E71C
:1043F000072A9DBF06A9891811F8141C202103F86B
:10440000011BC8EB030198BF01320729F0D92846E8
:10441000FFF7E0FE30B909F10109B9F1640FA9D144
:104420000720A4E0042840F0A2809DF8173088F807
:104430000B30AF629DF8173028469B0742BF0C3403
:104440000D23B4FBF3F44FF000014CBF0134012401
:10445000D5F80080FFF7A5FCC0B907464046A9691A
:10446000FFF7B0FA90B9EB691B78E52B00D01BB9C8
:104470000137A74201D10DE0074628460121FFF789
:104480002EFE0028EAD001E0062070E0042808BFD4
:1044900007206CE0013F51D029692846A1EB471164
:1044A000FFF77FFC002862D1286AFFF7FCF9044679
:1044B0003046A969FFF786FA0346002B57D1EA690F
:1044C0000F215FFA87FED5F828C00D20D1720EF1BA
:1044D000FF3141431846547313739376D3764FF6E6
:1044E000FF784045DFF88C8018BF3CF8110013F8C6
:1044F000088003F1010302F8080002EB08094FEA03
:10450000102889F801804FF6FF7818BF0131002884
:1045100008BF40460D2BE2D1404502D03CF8113097
:104520000BB94EF0400E012382F800E02846F370EC
:104530000021FFF7D4FDD0B9013FB9D13046A969B8
:10454000FFF740FA044688B9E86921462022FFF7C0
:1045500099F90B22E869296AFFF7E8F92B6AEA69F9
:10456000DB7A03F0180313730123F370204607B0BE
:10457000BDE8F083787C00002DE9F74F0646D0F8BF
:1045800000A0884611F9013B2F2BFAD05C2BF8D004
:104590000021B16098F800301F2B00F2AD8030464A
:1045A000336A8022DA7203B0BDE8F04FFFF7F9BB3F
:1045B0002F281DD05C281BD0B4F5807F00F0F88038
:1045C000C0B20121FFF7A6F8002800F0F1807F2893
:1045D00005D8814A12F8013F002B40F0958025460E
:1045E00027F8020F19F9010F6C1C80B21F28DFD8C1
:1045F00044442378A0465BB22F2B04F10104F8D089
:104600005C2BF6D0202834BF042400240BEB450398
:104610002DB133F8022D202A7BD02E2A79D0002705
:104620000BEB45092BF81570002D00F0C1802021FF
:10463000306A0B22FFF726F939463BF81130202B60
:1046400069D02E2B67D009B144F003044B4633F8F0
:10465000022D2E2A01D0013DF9D100231F464FF033
:1046600008093BF811004A1C002800F0938020281C
:1046700055D02E2851D04B4555D3B9F10B0F55D1FC
:104680003B4644F003044FF00B09326A1178E529E8
:1046900004BF05211170B9F1080F04BFBF00FBB2C0
:1046A00003F00C020C2A77D003F00301032973D026
:1046B000A10709D403F00303012B08BF44F0100441
:1046C000042A08BF44F00804336A3046DC72FFF75E
:1046D00081FD336ADB7A002861D15A0778D4B37937
:1046E000DB0663D531699AF80000C1F30801303167
:1046F0005144FFF724F9B060D6F828B008F1FF392B
:10470000ABF1020700256DE75BB283427FF462AF35
:104710004EE0013D7CE701318FE7AA424AD044F0E8
:10472000030411469DE7AA420CD143E0AA4202D0FD
:1047300044F003042ED8BF00FFB22A464FF00B0905
:104740000823EEE77F280ED900218DE80C00FEF744
:10475000E1FF9DE80C0018B12049084410F8800CD6
:1047600044F0020438B1DFF878E01EF8011F31B1DF
:1047700049B28142F9D144F003045F2006E0A0F180
:10478000410189B2192919D847F00207316AC85482
:104790000133C6E73B4678E744F0020488E7042883
:1047A00016D113F0040F08BF052011E005200FE01B
:1047B00006200DE0B9F10B0FBDD161E7A0F1610159
:1047C00089B219299EBF203847F0010780B2DDE782
:1047D00003B0BDE8F08F00BFB37B0000F87B0000A2
:1047E000BC7B00001FB5019004A840F8041D009197
:1047F0001446FFF767F8011E14DB0D4B53F8210038
:1048000008B100220270019808B10022027043F83A
:10481000210050B1012C07D1684601A90022FFF701
:104820001FF902E00B2000E0002004B010BD00BF23
:10483000540C00202DE9F04F93B001911546044629
:10484000002800F0A580002302F01F07036003A9E1
:1048500001A83A46FFF704F90646002840F09A807E
:10486000039B4FF400700793FEF7B2FF81460028C8
:1048700000F0928004AB1190019907A80F93FFF705
:104880007BFE28B90F9B93F90B30002BB8BF062095
:1048900015F01C0F51D050B1042840F0848007A8B7
:1048A000FFF744FD00287ED147F0080706E09DF899
:1048B000223013F0110F75D16B076FD43D0746D529
:1048C0000E9B0025A121482219745A749D73DD7333
:1048D0000E9BDDF80CB019765A769D75DD750E9B32
:1048E0002022DA72DDF838A09BF800005146FFF76D
:1048F00026F880462A4658465146FFF72EF80E9B6A
:1049000001221D775D779D77DD77039BDA70B8F123
:10491000000F1CD007A841462A46D3F82CA0FFF769
:104920005DFB00283FD103985146FFF74BF8039AEF
:1049300008F1FF33D36050B135E0002833D19DF842
:104940002230D8062CD4A90701D5DA072AD4039D32
:104950003B07DDF83880EB6AC4F8248023622878AE
:10496000414648BF47F02007FEF7E9FFA06008F185
:104970001C00FEF774FF0023637427746361E36116
:10498000EB88E0602560A3804846FEF723FF01E046
:1049900009200AE0304608E0112006E0082002E085
:1049A000042000E007200646EEE713B0BDE8F08FD4
:1049B0002DE9F74F984600230F46C8F8003001A9AB
:1049C00005461446FEF797FF002840F09A80687C61
:1049D000002840F096802B7CD90740F19180EB684D
:1049E0006869181A844228BF0446002C00F08680AB
:1049F0006B69C3F30802002A67D1019AB2F80AA0D2
:104A00000AF1FF3A1AEA532A10D10BB9A86803E059
:104A10002868A969FFF76AF9012801D8022002E095
:104A2000421C02D1012068746BE0A861DDF804B07B
:104A3000A9695846FEF72CFF0028EFD0660A00EB64
:104A40000A0922D0BBF80A3006EB0A029A4288BF54
:104A5000CAEB03069BF8010039464A46F3B2FEF75B
:104A6000BFFE0028DED12B7C5B060CD5E869C9EBC4
:104A70000000B04207D207EB402005F128014FF4B7
:104A80000072FEF753FF76022DE0EA694A451AD01C
:104A90002B7C05F1280613F0400F0BD09BF801008A
:104AA00031460123FEF7B2FE0028BBD12B7C23F058
:104AB00040032B74019B314658784A460123FEF788
:104AC0008FFE0028AED1C5F81C9069693846C1F345
:104AD0000801C1F50076A64228BF264628312944A0
:104AE0003246FEF723FF6B69374433446B61D8F8D5
:104AF0000030A41B3344C8F8003076E7204600E0BD
:104B0000072003B0BDE8F08F2DE9F74F984600234A
:104B10000F46C8F8003001A904461646FEF7EBFE22
:104B2000002840F0B580607C002840F0B180237CF4
:104B3000990740F1AC806369DE4250D3DE434EE01A
:104B40006369C3F30802002A40F08E80019AB2F82C
:104B50000AA00AF1FF3A1AEA532A43D0237C5B06E3
:104B600060D4DDF804B0A1695846FEF791FE002834
:104B70004BD0750A00EB0A0963D0BBF80A3005EB8D
:104B80000A029A4288BFCAEB03059BF80100394626
:104B90004A46EBB2FEF73AFE00283AD1E169C9EB8A
:104BA0000101A9420BD204F1280007EB41214FF487
:104BB0000072FEF7BBFE237C23F0400323746D02DA
:104BC0006369E2682B4463619A422CBFE260E36050
:104BD000D8F800302F442B44C8F80030761B002E44
:104BE000AED10AE01BB9A16869B9204601E02046B0
:104BF000A169FFF798F9014628B9237C002043F00A
:104C00002003237444E0012901D1022002E04A1C60
:104C100002D1012060743BE0A368A161002B9DD10B
:104C2000A1609BE7019B04F128015878E269012308
:104C3000FEF7ECFD0028ECD1237C23F04003237425
:104C40008FE7E3694B450DD06269E3689A4209D268
:104C50009BF8010004F128014A460123FEF7C0FD3C
:104C60000028D6D1C4F81C9060693946C0F308000A
:104C7000C0F50075B54228BF3546283020442A4685
:104C8000FEF754FE237C43F04003237498E707208B
:104C900003B0BDE8F08F73B501A90546FEF72BFE02
:104CA00000283DD12B7C03F0200202F0FF00002AF7
:104CB00036D05B060CD5019B05F128015878EA69CE
:104CC0000123FEF7A3FD50BB2B7C23F040032B7484
:104CD0000198296AFEF776FE044608BB6E6AF37AED
:104CE000314643F02003F372AA682868FEF735FEC8
:104CF00006F11C00E968FEF7BDFDA123337601989B
:104D0000482373760123B475F475B474F474C370D6
:104D1000FFF79AF92B7C23F020032B7400E001208D
:104D200002B070BD13B50446FFF7B5FF28B92046A1
:104D300001A9FEF7E0FD00B9206002B010BD00003F
:104D40002DE9F04F01298BB007908946164600F2F5
:104D50008A8207A8FEF7B6FD0028C0F28682C64BFD
:104D600053F82040002C00F082820023C7B2237049
:104D70003846FEF731FDC20700F17B82430700F1A0
:104D80007A823846012109AAFEF757FD08B10120B1
:104D90008CE2099B7F2BFAD9B9F1000F14BF4FF0B9
:104DA000000A4FF03F0A721ECAEB03033242099316
:104DB00002D1002E40F061824FF4FA61B3FBF1F1B1
:104DC0000022AE4830F81200814201D20132F8E7E9
:104DD000AB4931F81260B6F5007F01D3760A00E0E6
:104DE0001EB1812E28BF802600E00126B3FBF6F518
:104DF00040F6F572954240F245824FF6F5729542C3
:104E000040F24F82AD0005F2072500226D0A4FF0F7
:104E1000030802924FF0200C0CEB0A020192029A56
:104E200002EB050B019A9344CAEB06025A449342E3
:104E300001D20E203AE23846032108AACDF80CC070
:104E4000FEF7FBFCDDF80CC020B9089B013BB3F575
:104E5000004F01D301230893089AB8F1030F02F120
:104E6000FF335B44C2F1000203EA020308BF019A68
:104E7000CBEB030304BFD2189C44089308BF13462E
:104E8000099A14BFED1801930299CCEB02035B1B46
:104E90005B1AB3FBF6F3B8F1020F039305D140F6AA
:104EA000F57303999942C4D912E0B8F1030F06D102
:104EB0004FF6F573039A9A42BBD90C230DE0B8F173
:104EC000010F05D1B2F5803F2CBF0623012304E07A
:104ED000B2F5803F2CBF06230423B9F1000F49D15E
:104EE000059304F13003184649464FF40072CDF89B
:104EF00018C00493FEF7C6FC43F6C162059B0999EE
:104F000084F8F231FE2384F8F3310AEB0103B3FB9A
:104F1000F2F39A084FF0010B42F03F02089384F835
:104F2000F5313F2384F8F42184F8F63104F5FD705F
:104F300084F8EFB184F8F0B184F8F19184F8F79136
:104F400084F8F89184F8F991FEF794FC552384F8DD
:104F50002E32AA2384F82F32384604994A465B46FB
:104F6000FEF754FC00287FF412AF4FF0F80BDDF889
:104F700018C001E04FF0F00B04F130094846002161
:104F80004FF40072CDF810C0FEF77CFC3D490B22B7
:104F90004846FEF7CBFC0023B8F1030F84F83B3002
:104FA00084F8413018BF0223DDF810C084F8423085
:104FB000099B022284F83C2084F83EC00122CCF3F5
:104FC000072CB3F5803F84F83D6084F83FC084F837
:104FD000402099B205D2090A84F8433084F844107D
:104FE00003E004F15000FEF745FC3F23FF2284F864
:104FF0004830002384F8493084F84A2084F84B3044
:1050000084F845B004F14C0051460493FEF732FC9D
:105010001D4AB8F1030F0892049B4FF0A10237D14B
:1050200084F87520482284F8733084F8743084F84A
:10503000762004F154002946FEF71CFC049B022252
:1050400084F85C2084F85D30012284F85E3084F8B6
:105050005F3084F8613084F86330802384F8602006
:1050600084F870300622292384F8622084F8723094
:1050700004F17700054923E0540C00209E7B0000DA
:10508000867C0000C47B00000000A148D07B0000AB
:1050900084F8573084F85830482384F85A30C5F3E0
:1050A000072384F84730802384F85430814929232A
:1050B00084F8592084F8465084F8563004F15B0097
:1050C0001322FEF733FC552384F82E32AA2384F8EA
:1050D0002F323846494652460123FEF797FB0028F7
:1050E0007FF455AEB8F1030F06D1384649460AF1B0
:1050F00006020123FEF78AFB484600214FF40072A6
:10510000FEF7C0FBB8F1030F0CD0B8F1010F6A49EC
:1051100018BF6FF0FF0141EA0B0148460891FEF706
:10512000A9FB17E06BF0FF0148460891FEF7A2FBD0
:10513000FF2384F8343084F8353084F8363084F82E
:10514000373084F8383084F8393084F83A300F2317
:1051500084F83B30019B49461A4603F1010B38465F
:105160000123FEF753FB014600287FF410AE4846AA
:105170004FF40072FEF786FB01230893089BAB42B5
:1051800013D20BF1010C384649465A460123CDF89B
:1051900004C0FEF73BFB00287FF4F9AD089BDDF867
:1051A00004C001330893E346E8E7029B5D46B8F18B
:1051B000030F18BF1E460BF1010C384649465A46EC
:1051C0000123CDF804C0FEF721FB00287FF4DFADFA
:1051D000DDF804C072196245E346ECD1B8F1030F63
:1051E00038D15222039B4121019084F83020722053
:1051F00084F83120612284F8322084F8331084F856
:10520000140284F8150284F8161284F81722591E25
:1052100004F50670FEF72EFB019B022284F81D3276
:1052200084F81E3284F81F32552384F82E32AA23C4
:1052300084F81C2284F82F3249460AF10102012326
:105240003846FEF7E3FA384649460AF107020123D9
:10525000FEF7DCFA002138460A46FEF7EEFA003087
:1052600018BF012022E0132020E00B201EE00C20BC
:105270001CE003201AE00A2018E0B6F5007FBFF416
:10528000ADADAEE505EB450501356D0803354FF0D5
:10529000010805F2FF1520226D0A02924FF0010C61
:1052A000BAE502356D004FF00208F2E70BB0BDE839
:1052B000F08F00BFE47B000000FFFF0070B50A4DD7
:1052C0001C462B6816463BB908484FF4E1310322CF
:1052D000FDF76EFE01232B60044831462246FDF7A0
:1052E0008BFE204670BD00BF580C0020F40C00203F
:1052F00008B5104B0246196809B90F4919601868BA
:10530000EFF308818842024408D2914210D2002073
:1053100001210A4A1923FFF7D1FFFEE708498A4213
:1053200006D900200121074A1923FFF7C7FFFEE72E
:105330001A6008BD5C0C0020201200209C7C00003C
:1053400000F00020B67C0000074B084A1860084BAC
:105350001860084B1860084B1A60084B1860084B1F
:105360001860084B18607047D4000020B09E3C01C4
:10537000CC000020D0000020C0000020C40000208D
:10538000C8000020BC0000204FF6020238B53A4B9E
:10539000D3F84C11914262D0384A536943F40073F8
:1053A0005361354B9A6862B1FBF744F8324A936C0B
:1053B00023F480339364324B1A6842F003021A607C
:1053C00049E0304B1B68304931F8120043F82200A5
:1053D0000132392A0846F6D103F507740021451831
:1053E000B5F87250284A44F8115002318229F6D19A
:1053F000B2F8F410C3F80014B2F8F610C3F80414AD
:10540000B2F8F810C3F80814B2F8FA10C3F80C1484
:10541000B2F8FC10C3F81014B2F8FE10C3F814145C
:10542000B2F80011C3F81814B2F80211C3F81C1432
:10543000B2F80411C3F84014B2F80611B2F808210A
:10544000C3F84414C3F8482401221A60D3F8E420B6
:10545000002AFBD0A8E75A68D207FCD538BDD3F89C
:10546000982042F48072C3F89820D3F8982022F054
:105470008062C3F898208FE70080034000ED00E0D1
:105480000020024008770000FC7500001E4B82B02F
:10549000D3F8982051012BD4D3F89820D20412D4F9
:1054A0001A4B1B4A1B4913601B4A13601B4A1360AB
:1054B0001B4A11601B4A13601B4A13601B4A1C4B9A
:1054C0001A6002B070476A461A490868496803C200
:1054D000D3F89C2002A9C2F382120A4412F8082CC5
:1054E000012A02D004D314480AE04FF4004007E038
:1054F000D3F85031114813F0040F114B18BF184660
:1055000002B0FFF721BF00BF00800340C07AF20461
:10551000D4000020B09E3C01CC000020D000002030
:10552000C0000020C4000020C800002080F5E4096D
:10553000BC000020CA7C000040420F0040787D0182
:1055400080F0FA02024B01221A70024B1860704779
:10555000600C0020640C0020014B1860704700BFF5
:105560006C0C002038B50B4C2046FBF79DF820F45E
:10557000807529462046FBF795F8012000F00CFDC8
:10558000204645F48071FBF78DF8034B00221A701A
:1055900038BD00BF28000070690C00201A4B1B4A60
:1055A00010B55A601A4AF02182F82310002407220D
:1055B0009C601A604EF2FC034FF000421A60FEF746
:1055C00057F808200521FEF783F821460820FEF74A
:1055D0008BF809200521FEF77BF821460920FEF70C
:1055E00083F81D200521FEF773F81D200121FEF729
:1055F0007BF8084B1C70FFF7B5FFFAF78FFFBDE88B
:10560000104000F095BB00BF10E000E037440100FF
:1056100000ED00E0680C0020014B1860704700BFEF
:10562000D800002037B52E48FBF73EF80228044684
:1056300051D0431C1ED0012801D004204EE029483F
:10564000FBF732F800F1BC4001F030FE264B054676
:10565000186801F02BFE0146284601F033FF01F0E7
:10566000E9FA224B002201F039FB01F049FD204B01
:10567000187030E01E4B64221A701E481E4900222A
:10568000FFF7B0F848BB00F021FC062201461B489A
:10569000FFF7D0F818B11948FFF744FB1DE0124D91
:1056A00016484FF022412A6801ABFFF72DFA044655
:1056B0000028F0D12B68019A9A42ECD10F48FFF7ED
:1056C00031FB20460C492246FFF78CF8002814BF16
:1056D0000320002002E0204600E0032003B030BD9C
:1056E0000400007008000070D8000020000059403D
:1056F000740D0020780D0020B57C0000A80F00205C
:1057000038B5064C05462046FAF7CEFF20F0FF01DB
:1057100029432046BDE83840FAF7C4BF280000708E
:1057200038B50748FAF7C0FF064D2C7820EA040088
:10573000C4B20548FAF7B8FF2B781840204338BDAB
:105740002C000070680C0020280000702DE9F0414A
:10575000ADF50E7DFFF722FF00274FF0E04003215B
:10576000FAF7A0FF3C46FFF7FDFE0E2C00F25F812A
:10577000DFE814F00F0037005F005D0147005000C4
:1057800000015200030146014C013801510194000F
:105790005401AE4B1A78012A10D100221A70AC4B7A
:1057A0001C785CB9AB4B1D78FFF7BAFF05220346A6
:1057B0000092204629463A4600F0D4FA012F02D141
:1057C000FFF730FF0746A44D2B78012BCDD1A3481E
:1057D000FAF76AFF06460028C7D100F023FB2E70B7
:1057E000C3E79F4C4FF0E0402168FAF75BFF994B0D
:1057F00026681D78FFF794FF002403460094304686
:1058000012E0012F934B08D11C78FFF789FF009716
:10581000034613E1FFF7A6FE8E4B1D78FFF780FFCE
:10582000034600240094204629463A4600F09AFA9E
:105830009BE78C4E874D336803F003021344B3F1AA
:10584000007F336001D92C7840E0012F20D08648BA
:10585000FAF72AFF01301BD1002484484FF022417F
:105860002C70FAF71FFF82483168FAF71BFF0121FD
:105870004FF0E040FAF716FF2D78FFF751FF009444
:10588000034629462046012200F06CFA01276CE706
:105890002C78FFF745FF01220346CEE0714C6D4E98
:1058A000236813F0030F0AD03578FFF739FF06227B
:1058B00003460092002029463A4600F053FA236836
:1058C000DFF8A081B3F1007F05D93478FFF728FF16
:1058D00004220346B1E06448FAF7E6FE01280446D4
:1058E00007D13578FFF71CFF0094034629460020B6
:1058F000A6E0604900226048FEF774FF00F0E6FA77
:105900000122014604A8FEF795FF054600283CD178
:1059100004A84FF02241D8F8002003ABFFF748F865
:10592000044628B13478FFF7FBFE072203463EE029
:10593000039AD8F800309A4205D03578FFF7F0FE88
:105940000722034640E004A8FFF7ECF92246494944
:105950002046FEF747FF49484FF02241FAF7A2FEE2
:105960004748D8F80010FAF79DFE3578FFF7D8FEC3
:10597000034657E700F0F6FA4EE73F483D4900225C
:10598000FEF730FF334E054628B13478FFF7C8FEE6
:105990000222034651E0374829460122FFF7D0F999
:1059A000044630B13478FFF7BBFE03460222009272
:1059B00011E030490246FEF715FF054630B1357853
:1059C000FFF7AEFE0346022200922CE73478FFF781
:1059D000A7FE03460095214628463A4600F0C2F944
:1059E0002C46C2E61B4B00241C70FFF799FE009466
:1059F000034621462046224600F0B4F92746B4E685
:105A0000134B204A1B681B0A137005E7104B58788C
:105A1000FFF776FE00E700F0CFF914E01A48FAF736
:105A200043FE10F00104F9D100F0FCF99DE6094BAA
:105A30001C78FFF775FE03460322009221460020E2
:105A40003A4600F08FF900248FE600BF600C00207A
:105A5000640C0020740D0020690C002014000070FC
:105A60006C0C0020D80000200400007018000070AA
:105A70001C000070B57C0000780D00202000007034
:105A800024000070680C00202C000070014B0122E3
:105A90001A707047690C002073B501220DF10701DF
:105AA000FDF706FB002800F02A81964C23780C2B8A
:105AB00000F22381DFE813F00D0014002D00210116
:105AC00021016A0055007C008C00A500B900D100BE
:105AD000FF009DF80730132B40F0118101230DE1E9
:105AE0009DF80730C02B0CD004D8132B00F0078191
:105AF0003D2B04E0FB2B04D0FD2B02D0C92B40F042
:105B0000FC8002222270804A1370804B00221A709F
:105B1000F5E09DF807207D4B1AB91A7801321A700A
:105B200001E0002222701B78022B40F0E880774BC6
:105B300000221A70744B1B78C92B10D006D83D2B4D
:105B400009D0C02B40F0D9800623D7E0FB2B04D02E
:105B5000FD2B40F0D2800723D0E00923CEE00B23B9
:105B6000CCE06B4A9DF80730106843EA00201060D3
:105B7000664A13780133DBB2042B40F0A98000237E
:105B8000137005232370FFF7E7FCB8E0604A9DF827
:105B90000730106843EA002010605C4A1378013334
:105BA000DBB2042B40F0948000231370237051E08B
:105BB000564A9DF80710137856482029C15405D13C
:105BC0000021C15408232370117098E001337FE055
:105BD0004F4A9DF80730106843EA002010604B4A96
:105BE00013780133DBB2042B72D1002313702370BE
:105BF000FFF712FD444B1B78FD2B0CBF02200D203C
:105C000028E0434A9DF80730116843EA01211160FA
:105C10003E4A13780133DBB2042B59D100233E48AE
:105C20001370FAF73FFD0A2368E0394A9DF8073000
:105C3000116843EA01211160344A13780133DBB261
:105C4000042B45D100254FF0E0401570FAF72AFDEE
:105C500025700C20FFF776FC51E02D4B9DF80720B6
:105C6000196842EA0121294A196013780133DBB22D
:105C7000042B2DD100231370CB0903F0FE03202B3E
:105C8000264D88BF20232B70254B26481A78202AC2
:105C900084BF20221A70FAF705FD2B780BB10C2374
:105CA0002CE000234FF0E0400B212370FAF7FAFCC0
:105CB000FFF7ECFE23E0164A9DF80730116843EA2F
:105CC00001211160114A13780133DBB2042B01D09A
:105CD000137014E0114D002313702B78124E5A1ECE
:105CE00013F0010F2A7002D10BB13160D5E70F48D4
:105CF000FAF7D8FC0D483168CDE70023237002B0D5
:105D000070BD00BF7A0C00207B0C00207C0C0020B2
:105D1000740C0020DC0000200C000070790C0020C6
:105D2000780C002038000070700C002030000070EB
:105D300010B5094C4FF4E12120460322FDF738F954
:105D4000204606490022FDF7E9F92046BDE810404B
:105D50000349FDF785B900BFF40C0020995A0000F3
:105D6000D27C00001FB513248DF8044057248DF811
:105D7000054000248DF806408DF80740040E8DF88C
:105D800008408DF80E30040C9DF818308DF809404D
:105D90008DF80B00040A8DF80C108DF80D200548C5
:105DA00001A90C228DF80A408DF80F30FDF724F977
:105DB00004B010BDF40C00201FB51748FAF774FCAE
:105DC00004461648FAF770FC13238DF80430F523C7
:105DD0008DF8053000238DF806308DF80730230E3E
:105DE0008DF80830230C8DF80930230A8DF80A301D
:105DF000030E8DF80C30030C8DF80D308DF80F006C
:105E0000030A01A906480C228DF80B408DF80E30CC
:105E1000FDF7F2F804B010BD10000070140000701F
:105E2000F40C002070B51323C2B08DF88030C52368
:105E30008DF88130204800238DF882308DF8833032
:105E4000FAF732FC1D4D400028701D48FAF72CFC73
:105E5000030E8DF88430030C8DF885302C78030AFE
:105E60008DF886308DF8870014F1FF3405D315487E
:105E7000FAF71AFC4DF82400F6E72A78002393423B
:105E800011DA5DF823509E000021881920AC2044CF
:105E9000CC00C4F11804013125FA04F40429047279
:105EA000F3D10133EBE70232074820A99200FDF756
:105EB000A3F842B070BD00BF38000070780C00201D
:105EC0003C00007034000070F40C00200048704763
:105ED000DC00002018B924230B6002487047002022
:105EE00008607047F00000200120704701207047D3
:105EF00020B9054B186808609B6801E000230B601F
:105F000013600120704700BF14010020B1F1007F31
:105F10008CBF0023C1F10073136010B901F1204060
:105F20007047002070470120704701207047000033
:105F3000014B1878704700BF040000200120704713
:105F400060B9B2F1007F09D8D018B0F1806F88BF76
:105F5000C2F1007302F120420A6001E000230B60ED
:105F60001846704710B5094B00242146DC661D20F9
:105F7000FDF7BAFB2046FBF725FA0548FBF742FA86
:105F80002146BDE810400348FCF73CBE00800340BA
:105F90007401002020010020024B18601A68002ABA
:105FA000FCD17047800C0020034B1A6812B11A68AC
:105FB000013A1A60704700BF800C0020024A136843
:105FC00001331360FFF7F0BF840C0020122303603D
:105FD00000487047600100200A230B6008B902489E
:105FE00070470248704700BF48010020520100205E
:105FF00030B591B188B105460A462C782B4601355B
:1060000024B100239470D3700232F6E71A1A0132D9
:1060100052000A7003224A7000E00346181A013049
:10602000400000F0FE0030BD10B50C46052815D824
:10603000DFE800F00306080A0C0E04230B6012E0F0
:106040000A4806E00A4804E00A4802E00A4800E07C
:106050000A480B49FFF7CCFF206002E000230B60E9
:1060600008B1074810BD074810BD00BFE27C000022
:10607000F17C0000097D0000127D0000197D000008
:10608000D01100205C01002070B50F4E0F4D761B23
:10609000B61018BF002405D0013455F8043B9847CA
:1060A000A642F9D10A4E0B4D01F042FE761BB61006
:1060B00018BF002406D0013455F8043B9847A64287
:1060C000F9D170BD70BD00BF487D0000487D000063
:1060D000507D0000487D0000024B0146186800F02A
:1060E0000BB800BFA8050020024B0146186800F05D
:1060F00013BB00BFA80500202DE9F04F01F10B05EF
:10610000162D83B0064627D935F0070500F1B68075
:10611000A94200F2B38000F075FAB5F5FC7F22D2F7
:10612000BC4FE80807EBC003DC689C4200F0BC8170
:106130006368E16823F0030323445A68A56842F0CA
:106140000102E96030468D605A6000F05DFA083463
:10615000204603B0BDE8F08F102900F28F8000F0D8
:1061600051FA1025DCE7680A00F08F80042800F25D
:106170004781A80938304100A64F07EB8101CC6860
:10618000A14206D10CE0002A80F28280E468A1429C
:1061900006D0636823F003035A1B0F2AF3DD01388E
:1061A00001309C493C6901F1080E744500F0718191
:1061B000636823F003035A1B0F2A00F35781002A58
:1061C000C1F814E0C1F810E066DAB3F5007F80F0A2
:1061D0002D81DB0801EBC3084FEAA30C4A680123B9
:1061E00003FA0CF3D8F808C01343C4F808C0C4F885
:1061F0000C804B60C8F80840CCF80C408210012499
:1062000094409C4255D8234206D120F003006400FC
:10621000234200F10400FAD007EBC008C4468146CF
:10622000DCF80C309C4507D135E1002980F245812E
:10623000DB689C4500F02F815A6822F00302511B55
:106240000F29F2DD1C46DA6854F808CF45F0010941
:1062500041F001081D44C3F804903046CCF80C20EE
:10626000C2F808C07D613D61C5F80CE0C5F808E0E2
:10627000C5F80480695000F0C7F969E7002420469A
:106280000C23336003B0BDE8F08F7E213F2073E71D
:1062900023445A68E16851E723445A68304642F083
:1062A00001025A60083400F0AFF9204603B0BDE89F
:1062B000F08FBC68636823F00308454504D8C5EB3C
:1062C00008030F2B00F38C80534BDFF85CA11A6896
:1062D000DAF800302A44013304EB080B00F0518156
:1062E00002F580520F3222F47F6222F00F02114633
:1062F0003046019200F08AF9B0F1FF3F8146019AE1
:1063000000F04881834500F2EF80444BCB4519688B
:106310001144196000F04381DAF80000DFF808E169
:1063200001301BBFCBEB090B5944CEF8009019602C
:1063300019F0070100F00881C1F10800C1F5805192
:10634000814408314A44C2F30B02C2EB010A5146B0
:106350003046019300F05AF9431C019B00F02D8157
:10636000C9EB0002524442F001021968BC42514498
:10637000C7F808901960C9F80420DFF8A0A016D06B
:10638000B8F10F0F40F2EF806268A8F10C0323F020
:10639000070302F00102E0184FF0050E1A430F2B1D
:1063A0006260C0F804E0C0F808E000F20A811C4B0B
:1063B000BC681A68914288BF19601A4B1A689142EA
:1063C000626888BF196022F003029542A2EB0503C0
:1063D00001D80F2B04DC304600F016F90024B7E694
:1063E00045F0010243F00103254462603046BD6080
:1063F00008346B6000F008F9204603B0BDE8F08F68
:10640000142869D9542800F29880280B6E30410076
:10641000B2E600BFAC050020900C0020940C0020D8
:106420008C0C0020880C0020B80900205A0A042A8D
:1064300055D9142A00F2A7805B324FEA420C07EBD1
:106440008C0CDCF80810DFF8B88161457FD04A6811
:1064500022F00302934202D289688C45F7D1CA68C0
:106460007B68E260A1609460CC60C7E645F00107FC
:1064700042F001032544676030464D610D61C5F867
:106480000CE0C5F808E06B60AA50083400F0BCF8D6
:106490005EE64B68B2E609F1010919F0030F0CF151
:1064A000080C7FF4BDAE2CE004F108036469A3423C
:1064B00008BF02303FF475AE3AE61C461A445168F4
:1064C000DB6854F8085F41F0010151603046EB6031
:1064D0009D6000F099F83BE65B3041004CE69A097C
:1064E00038324FEA420CAAE7BC42454B3FF40DAFAD
:1064F0009C68626822F0030267E7D8F8008098453C
:106500007CD110F0030FA8F1080300F1FF30F4D1A3
:106510007B6823EA04037B6064009C423FF6C9AEBB
:10652000002C3FF4C6AE234248467FF475AE6400AB
:10653000234200F10400FAD06EE6B0F5AA7F18D825
:10654000E80B7730410017E64FF48051FAE6D8F8AF
:10655000043092104FF0010C0CFA02F21343C8F809
:1065600004300A467DE70123C9F804304C46002276
:106570002BE740F2545398421CD8A80C7C304100C1
:10658000FAE51032B3E6542A23D81A0B6E324FEADA
:10659000420C54E7BC68626822F0030215E7CBF3B3
:1065A0000B0000287FF4B8AE4244BB6842F0010201
:1065B0005A60FCE6FC217E20DEE501224FF0000A55
:1065C000D3E604F10801304600F0A6F8DAF800102E
:1065D000EDE6B2F5AA7F04D8DA0B77324FEA420C27
:1065E0002DE740F254518A4204D89A0C7C324FEA8B
:1065F000420C24E74FF0FC0C7E2220E77B688BE7FF
:10660000AC050020704700BF704700BF38B5074C8D
:106610000023054608462360FEF76AFE431C00D0AF
:1066200038BD2368002BFBD02B6038BD1012002032
:10663000024B13B1024800F005B87047000000009B
:1066400051660000014600200246034600F03CB9B6
:1066500038B5084B084DED1AAC1018BFED1805D031
:10666000013C55F8043D9847002CF9D1BDE838406D
:1066700001F064BB507D0000547D0000F8B50C466D
:10668000224F0646FFF7BEFFBB685D6825F0030595
:10669000291B01F6EF7121F47F6121F00F01A1F5B3
:1066A0008054B4F5805F07DB30460021FFF7AEFF72
:1066B000BB682B44984204D03046FFF7A5FF00206A
:1066C000F8BD30466142FFF7A1FF01300DD0104BFD
:1066D000BA6819682D1B45F001053046091B556045
:1066E0001960FFF791FF0120F8BD30460021FFF748
:1066F0008DFFBA68831A0F2BDEDD064C044924682F
:1067000043F00103001B53600860D5E7AC0500208F
:10671000940C0020B809002000294ED02DE9F0414A
:106720000C468046FFF76EFF54F8047C6249A4F1E2
:10673000080527F00102AB188E6858689E4220F0C9
:1067400003005AD0FE0758600BD454F8087C01F1BE
:10675000080EED1BAC683A44744567D0EF68E760FB
:10676000BC601C186468E4070CD4544F9C68024455
:10677000BC427CD0D86842F00103E06084606B606A
:10678000AA5003E042F001036B60AA50B2F5007F0B
:1067900014D2D20801EBC20301244868921004FA13
:1067A00002F29C681043AC60EB6048609D60E5605D
:1067B0004046BDE8F041FFF727BF7047530A042B5E
:1067C00047D8930903F13804600001EB8000836827
:1067D0003949834243D0596821F00301914202D9DB
:1067E0009B689842F7D1DA68EA60AB6040469560F2
:1067F000DD60BDE8F041FFF707BFFF07024407D4A3
:1068000054F8084C2D1BEB68A8682244C3609860BC
:106810002B4B42F001001B6868609A428D60C7D321
:10682000284B40461968FFF729FFC1E71918496846
:10683000C90709D4D96802449B6842F00100D960B5
:106840008B606860AA50B3E742F001036B60AA5006
:10685000AEE7142B14D803F15B046000B5E74A6877
:10686000A4100120A04002434A601A46BCE742F04F
:1068700001034D610D61EC60AC606B60AA5097E75D
:10688000542B04D8130B03F16E0460009DE7B3F59D
:10689000AA7F04D8D30B03F17704600095E740F298
:1068A0005450834204D8930C03F17C0460008CE7BD
:1068B000FC207E2489E700BFAC050020B405002041
:1068C000B4090020900C00202DE9F047254C064625
:1068D00025688846D5F8484192469946C4B3606811
:1068E0001F2817DC411C76B104EB8003C3F888A095
:1068F000D4F88851012282401543022EC4F88851F1
:10690000C3F808911ED0831C6160002044F82380E6
:10691000BDE8F087144B03B34FF4C870FFF7DCFBFE
:106920000446D0B1D5F84831002784E888003846BD
:10693000C5F848410121C4F88871C4F88C71002E53
:10694000E1D0D1E7D4F88C311A43C4F88C21DAE7CE
:1069500005F5A674C5F84841C1E74FF0FF30BDE822
:10696000F08700BF2C7D0000D960000081F000415D
:1069700002E000BF83F0004330B54FEA41044FEA24
:10698000430594EA050F08BF90EA020F1FBF54EABF
:10699000000C55EA020C7FEA645C7FEA655C00F05B
:1069A000E2804FEA5454D4EB5555B8BF6D420CDD2C
:1069B0002C4480EA020281EA030382EA000083EAAF
:1069C000010180EA020281EA0303362D88BF30BD4F
:1069D00011F0004F4FEA01314FF4801C4CEA1131A5
:1069E00002D0404261EB410113F0004F4FEA033304
:1069F0004CEA133302D0524263EB430394EA050F8F
:106A000000F0A780A4F10104D5F1200E0DDB02FAFD
:106A10000EFC22FA05F2801841F1000103FA0EF291
:106A2000801843FA05F359410EE0A5F120050EF157
:106A3000200E012A03FA0EFC28BF4CF0020C43FA88
:106A400005F3C01851EBE37101F0004507D54FF095
:106A5000000EDCF1000C7EEB00006EEB0101B1F5E5
:106A6000801F1BD3B1F5001F0CD349085FEA30002B
:106A70004FEA3C0C04F101044FEA445212F5800F36
:106A800080F09A80BCF1004F08BF5FEA500C50F1D3
:106A9000000041EB045141EA050130BD5FEA4C0CB6
:106AA000404141EB010111F4801FA4F10104E9D13F
:106AB00091F0000F04BF01460020B1FA81F308BF36
:106AC0002033A3F10B03B3F120020CDA0C3208DD02
:106AD00002F1140CC2F10C0201FA0CF021FA02F1DD
:106AE0000CE002F11402D8BFC2F1200C01FA02F14D
:106AF00020FA0CFCDCBF41EA0C019040E41AA2BF72
:106B000001EB0451294330BD6FEA04041F3C1CDA39
:106B10000C340EDC04F11404C4F1200220FA04F059
:106B200001FA02F340EA030021FA04F345EA030103
:106B300030BDC4F10C04C4F1200220FA02F001FAC5
:106B400004F340EA0300294630BD21FA04F0294647
:106B500030BD94F0000F83F4801306BF81F48011E0
:106B60000134013D4EE77FEA645C18BF7FEA655C53
:106B700029D094EA050F08BF90EA020F05D054EA25
:106B8000000C04BF1946104630BD91EA030F1EBF2A
:106B90000021002030BD5FEA545C05D1400049412E
:106BA00028BF41F0004130BD14F580043CBF01F521
:106BB000801130BD01F0004545F0FE4141F4700107
:106BC0004FF0000030BD7FEA645C1ABF19461046E2
:106BD0007FEA655C1CBF0B46024650EA013406BFE3
:106BE00052EA033591EA030F41F4002130BD00BFA2
:106BF00090F0000F04BF0021704730B54FF480645F
:106C000004F132044FF000054FF0000150E700BFDF
:106C100090F0000F04BF0021704730B54FF480643E
:106C200004F1320410F0004548BF40424FF000012B
:106C30003EE700BF42004FEAE2014FEA31014FEA6E
:106C400002701FBF12F07F4393F07F4F81F06051BD
:106C5000704792F0000F14BF93F07F4F704730B52C
:106C60004FF4607401F0004521F0004120E700BFBF
:106C700050EA010208BF704730B54FF000050AE046
:106C800050EA010208BF704730B511F0004502D547
:106C9000404261EB41014FF4806404F132045FEA49
:106CA000915C3FF4DCAE4FF003025FEADC0C18BFEE
:106CB00003325FEADC0C18BF033202EBDC02C2F1E4
:106CC000200300FA03FC20FA02F001FA03FE40EA76
:106CD0000E0021FA02F11444C1E600BF70B54FF076
:106CE000FF0C4CF4E06C1CEA11541DBF1CEA135558
:106CF00094EA0C0F95EA0C0F00F0DEF82C4481EAC0
:106D0000030621EA4C5123EA4C5350EA013518BFDF
:106D100052EA033541F4801143F4801338D0A0FBCC
:106D200002CE4FF00005E1FB02E506F00042E0FB79
:106D300003E54FF00006E1FB03569CF0000F18BF7F
:106D40004EF0010EA4F1FF04B6F5007F64F5407427
:106D500004D25FEA4E0E6D4146EB060642EAC621BA
:106D600041EA55514FEAC52040EA5E504FEACE2E27
:106D7000B4F1FD0C88BFBCF5E06F1ED8BEF1004F2A
:106D800008BF5FEA500E50F1000041EB045170BDA6
:106D900006F0004646EA010140EA020081EA0301EA
:106DA000B4EB5C04C2BFD4EB0C0541EA045170BDE6
:106DB00041F480114FF0000E013C00F3AB8014F160
:106DC000360FDEBF002001F0004170BDC4F10004A9
:106DD000203C35DA0C341BDC04F11404C4F120052A
:106DE00000FA05F320FA04F001FA05F240EA020085
:106DF00001F0004221F0004110EBD37021FA04F6BB
:106E000042EB06015EEA430E08BF20EAD37070BD74
:106E1000C4F10C04C4F1200500FA04F320FA05F0D3
:106E200001FA04F240EA020001F0004110EBD370D5
:106E300041F100015EEA430E08BF20EAD37070BD45
:106E4000C4F1200500FA05F24EEA020E20FA04F31E
:106E500001FA05F243EA020321FA04F001F00041CD
:106E600021FA04F220EA020000EBD3705EEA430E3E
:106E700008BF20EAD37070BD94F0000F0FD101F06D
:106E80000046400041EB010111F4801F08BF013CA6
:106E9000F7D041EA060195F0000F18BF704703F0E4
:106EA0000046520043EB030313F4801F08BF013D6B
:106EB000F7D043EA0603704794EA0C0F0CEA135527
:106EC00018BF95EA0C0F0CD050EA410618BF52EAE1
:106ED0004306D1D181EA030101F000414FF00000E7
:106EE00070BD50EA410606BF1046194652EA4306F5
:106EF00019D094EA0C0F02D150EA013613D195EA69
:106F00000C0F05D152EA03361CBF104619460AD1B0
:106F100081EA030101F0004141F0FE4141F47001BA
:106F20004FF0000070BD41F0FE4141F4780170BDAA
:106F300070B54FF0FF0C4CF4E06C1CEA11541DBF0F
:106F40001CEA135594EA0C0F95EA0C0F00F0A7F811
:106F5000A4EB050481EA030E52EA03354FEA01313E
:106F600000F088804FEA03334FF0805545EA131351
:106F700043EA12634FEA022245EA111545EA106519
:106F80004FEA00260EF000419D4208BF964244F1B0
:106F9000FD0404F5407402D25B084FEA3202B61ACF
:106FA00065EB03055B084FEA32024FF480104FF4A3
:106FB000002CB6EB020E75EB030E22BFB61A754617
:106FC00040EA0C005B084FEA3202B6EB020E75EBAA
:106FD000030E22BFB61A754640EA5C005B084FEA12
:106FE0003202B6EB020E75EB030E22BFB61A7546DF
:106FF00040EA9C005B084FEA3202B6EB020E75EBEA
:10700000030E22BFB61A754640EADC0055EA060EAA
:1070100018D04FEA051545EA16754FEA06164FEAED
:10702000C30343EA52734FEAC2025FEA1C1CC0D199
:1070300011F4801F0BD141EA00014FF000004FF026
:10704000004CB6E711F4801F04BF01430020B4F1E7
:10705000FD0C88BFBCF5E06F3FF6AFAEB5EB030C9F
:1070600004BFB6EB020C5FEA500C50F1000041EB9C
:10707000045170BD0EF0004E4EEA113114EB5C0469
:10708000C2BFD4EB0C0541EA045170BD41F480113C
:107090004FF0000E013C90E645EA060E8DE60CEA44
:1070A000135594EA0C0F08BF95EA0C0F3FF43BAF61
:1070B00094EA0C0F0AD150EA01347FF434AF95EA18
:1070C0000C0F7FF425AF104619462CE795EA0C0FFC
:1070D00006D152EA03353FF4FDAE1046194622E7C9
:1070E00050EA410618BF52EA43067FF4C5AE50EAA3
:1070F00041047FF40DAF52EA43057FF4EBAE12E793
:107100004A0011D212F5001211D20DD56FF4787326
:10711000B3EB62520ED44FEAC12343F0004343EA7B
:10712000505323FA02F070474FF00000704750EAC6
:10713000013002D14FF0FF3070474FF00000704730
:1071400080F0004002E000BF81F0004142001FBF1C
:107150005FEA410392EA030F7FEA226C7FEA236C25
:107160006AD04FEA1262D2EB1363C1BFD21841401A
:1071700048404140B8BF5B42192B88BF704710F0B0
:10718000004F40F4000020F07F4018BF404211F053
:10719000004F41F4000121F07F4118BF494292EABB
:1071A000030F3FD0A2F1010241FA03FC10EB0C00E7
:1071B000C3F1200301FA03F100F0004302D5494274
:1071C00060EB4000B0F5000F13D3B0F1807F06D321
:1071D00040084FEA310102F10102FE2A51D2B1F119
:1071E000004F40EBC25008BF20F0010040EA03000E
:1071F0007047490040EB000010F4000FA2F10102BB
:10720000EDD1B0FA80FCACF1080CB2EB0C0200FA44
:107210000CF0AABF00EBC25052421843BCBFD04092
:107220001843704792F0000F81F4000106BF80F40C
:1072300000000132013BB5E74FEA41037FEA226CCF
:1072400018BF7FEA236C21D092EA030F04D092F09A
:10725000000F08BF0846704790EA010F1CBF0020CE
:10726000704712F07F4F04D1400028BF40F000402B
:10727000704712F100723CBF00F50000704700F04B
:10728000004343F0FE4040F4000070477FEA226272
:1072900016BF08467FEA23630146420206BF5FEA43
:1072A000412390EA010F40F4800070474FF0000343
:1072B00004E000BF10F0004348BF40425FEA000C0A
:1072C00008BF704743F0964301464FF000001CE0B2
:1072D00050EA010208BF70474FF000030AE000BF08
:1072E00050EA010208BF704711F0004302D5404246
:1072F00061EB41015FEA010C02BF844601460020B8
:1073000043F0B64308BFA3F18053A3F50003BCFAD2
:107310008CF2083AA3EBC25310DB01FA02FC63447F
:1073200000FA02FCC2F12002BCF1004F20FA02F286
:1073300043EB020008BF20F00100704702F1200279
:1073400001FA02FCC2F1200250EA4C0021FA02F2DA
:1073500043EB020008BF20EADC7070474FF0FF0CDF
:107360001CEAD0521EBF1CEAD15392EA0C0F93EADA
:107370000C0F6FD01A4480EA010C400218BF5FEA7C
:1073800041211ED04FF0006343EA501043EA5111EF
:10739000A0FB01310CF00040B1F5000F3EBF4900E9
:1073A00041EAD3715B0040EA010062F17F02FD2AED
:1073B0001DD8B3F1004F40EBC25008BF20F00100D0
:1073C000704790F0000F0CF0004C08BF49024CEAE7
:1073D000502040EA51207F3AC2BFD2F1FF0340EA79
:1073E000C250704740F400004FF00003013A5DDCEA
:1073F00012F1190FDCBF00F000407047C2F100022B
:10740000410021FA02F1C2F1200200FA02FC5FEA17
:10741000310040F1000053EA4C0308BF20EADC7061
:10742000704792F0000F00F0004C02BF400010F4D3
:10743000000F013AF9D040EA0C0093F0000F01F080
:10744000004C02BF490011F4000F013BF9D041EAA2
:107450000C018FE70CEAD15392EA0C0F18BF93EAA4
:107460000C0F0AD030F0004C18BF31F0004CD8D1CE
:1074700080EA010000F00040704790F0000F17BF55
:1074800090F0004F084691F0000F91F0004F14D09B
:1074900092EA0C0F01D142020FD193EA0C0F03D1F3
:1074A0004B0218BF084608D180EA010000F00040F6
:1074B00040F0FE4040F40000704740F0FE4040F4D1
:1074C000400070474FF0FF0C1CEAD0521EBF1CEA70
:1074D000D15392EA0C0F93EA0C0F69D0A2EB03028E
:1074E00080EA010C49024FEA402037D04FF0805328
:1074F00043EA111143EA10130CF000408B4238BFED
:107500005B0042F17D024FF4000C8B4224BF5B1AFA
:1075100040EA0C00B3EB510F24BFA3EB510340EA48
:107520005C00B3EB910F24BFA3EB910340EA9C00F6
:10753000B3EBD10F24BFA3EBD10340EADC001B0166
:1075400018BF5FEA1C1CE0D1FD2A3FF650AF8B420A
:1075500040EBC25008BF20F0010070470CF0004C17
:107560004CEA50207F32C2BFD2F1FF0340EAC25042
:10757000704740F400004FF00003013A37E792F003
:10758000000F00F0004C02BF400010F4000F013A61
:10759000F9D040EA0C0093F0000F01F0004C02BF5C
:1075A000490011F4000F013BF9D041EA0C0195E7C5
:1075B0000CEAD15392EA0C0F08D142027FF47DAF5E
:1075C00093EA0C0F7FF470AF084676E793EA0C0F4E
:1075D00004D14B023FF44CAF08466EE730F0004C4C
:1075E00018BF31F0004CCAD130F000427FF45CAFDC
:1075F00031F000437FF43CAF5FE700BF00000000C4
:1076000088270F030200000081009F090000333328
:10761000FFFF777777070100424208003300200020
:1076200000000000C00023003502040008017801BA
:107630003300371914001000003300000000140458
:10764000000000000000020000008040F8800700F9
:10765000F880070000020000000003000300400063
:10766000000000000000000009030100000000000D
:107670000000800000000000030000000000000087
:10768000000000000B0000000000000000004000AF
:107690000104104000000000000000000000000095
:1076A0000000000000000000000000004000010495
:1076B000104000000000000000000000000000007A
:1076C0000000000000000000000000004000010475
:1076D0001040000000000000000000000000210039
:1076E000000003000100010000000900000001008B
:1076F000000000000000000000000000000000008A
:10770000000000000000000000080240000000002F
:107710000000000000AAAAAAAAAAAAAAAAEEEEEE4F
:10772000EEEEEEEEEEFEFFFFFFFFFFFFFFFFFFFFBF
:10773000FF7FBFDFEFF7FBFDFC7EBFDFEFF7FBFD59
:107740007E00000400020004000400020004323342
:107750003435363738393A3B3C3D3E3F4041424371
:107760004445464748494A4B4C4D4E4F5051000006
:107770000030014004300140083001400C3001402D
:107780001030014014300140183001401C300140DD
:107790002030014024300140283001402C3001408D
:1077A0003030014034300140383001403C3001403D
:1077B0004030014044300140483001404C300140ED
:1077C0005030014054300140583001405C3001409D
:1077D0006030014064300140683001406C3001404D
:1077E0007030014074300140783001407C300140FD
:1077F000C700FC00E900E200E400E000E500E7006B
:10780000EA00EB00E800EF00EE00EC00C400C50069
:10781000C900E600C600F400F600F200FB00F90023
:10782000FF00D600DC00A200A300A500A720920163
:10783000E100ED00F300FA00F100D100AA00BA0067
:10784000BF001023AC00BD00BC00A100AB00BB001A
:10785000912592259325022524256125622556250B
:1078600055256325512557255D255C255B2510256C
:10787000142534252C251C2500253C255E255F2557
:107880005A25542569256625602550256C256725D0
:1078900068256425652559255825522553256B25CE
:1078A0006A2518250C25882584258C25902580257A
:1078B000B103DF009303C003A303C303B500C403F4
:1078C000A6039803A903B4031E22C603B503292205
:1078D0006122B1006522642220232123F70048227F
:1078E000B0001922B7001A227F20B200A025A00004
:1078F0007D1D0100632C001E9601A01E5A01001F71
:107900000806101F0606201F0806301F0806401F25
:107910000606511F0700591F521F5B1F541F5D1F92
:10792000561F5F1F601F0806701F0E00BA1FBB1F87
:10793000C81FC91FCA1FCB1FDA1FDB1FF81FF91F83
:10794000EA1FEB1FFA1FFB1F801F0806901F080687
:10795000A01F0806B01F0400B81FB91FB21FBC1F2C
:10796000CC1F0100C31FD01F0206E01F0206E51F47
:107970000100EC1FF21F0100FC1F4E21010032210B
:1079800070211002842101008321D0241A05302C9B
:107990002F04602C0201672C0601752C0201802C3B
:1079A0006401002D260841FF1A03000061001A033C
:1079B000E0001703F8000703FF0001007801000151
:1079C000300132010601390110014A012E0179010D
:1079D000060180014D004302810182018201840180
:1079E000840186018701870189018A018B018B014E
:1079F0008D018E018F0190019101910193019401FC
:107A0000F60196019701980198013D029B019C01A6
:107A10009D0120029F01A001A001A201A201A401D9
:107A2000A401A601A701A701A901AA01AB01AC010C
:107A3000AC01AE01AF01AF01B101B201B301B301BD
:107A4000B501B501B701B801B801BA01BB01BC016C
:107A5000BC01BE01F701C001C101C201C301C401E3
:107A6000C501C401C701C801C701CA01CB01CA01D0
:107A7000CD011001DD0101008E01DE011201F301D3
:107A80000300F101F401F401F801280122021201BE
:107A90003A020900652C3B023B023D02662C3F0284
:107AA00040024102410246020A01530240008101A4
:107AB0008601550289018A0158028F015A029001FC
:107AC0005C025D025E025F02930161026202940148
:107AD0006402650266026702970196016A02622CDF
:107AE0006C026D026E029C01700271029D017302B4
:107AF00074029F0176027702780279027A027B0291
:107B00007C02642C7E027F02A60181028202A9010E
:107B10008402850286028702AE014402B101B201ED
:107B200045028D028E028F0290029102B7017B0303
:107B30000300FD03FE03FF03AC0304008603880378
:107B400089038A03B1031103C2030200A303A30341
:107B5000C4030803CC0303008C038E038F03D803F4
:107B60001801F2030A00F903F303F403F503F60323
:107B7000F703F703F903FA03FA0330042003500470
:107B80001007600422018A043601C1040E01CF04EB
:107B90000100C004D0044401610526040000000473
:107BA00000020001800040002000100008000400D6
:107BB00002000000222A3A3C3E3F7C7F002B2C3BF7
:107BC0003D5B5D00EBFE904D53444F53352E30002E
:107BD0004E4F204E414D4520202020464154333207
:107BE000202020004E4F204E414D45202020204691
:107BF0004154202020202000809A45418E418F80D2
:107C00004545454949498E8F9092924F994F555518
:107C100059999A9B9C9D9E9F41494F55A5A5A6A702
:107C2000A8A9AAABACADAEAFB0B1B2B3B4B5B6B75C
:107C3000B8B9BABBBCBDBEBFC0C1C2C3C4C5C6C74C
:107C4000C8C9CACBCCCDCECFD0D1D2D3D4D5D6D73C
:107C5000D8D9DADBDCDDDEDFE0E1E2E3E4E5E6E72C
:107C6000E8E9EAEBECEDEEEFF0F1F2F3F4F5F6F71C
:107C7000F8F9FAFBFCFDFEFF01030507090E1012DF
:107C80001416181C1E000080004000200010000880
:107C900000400020001000080004000248656170E8
:107CA00020616E6420737461636B20636F6C6C6918
:107CB00073696F6E0A004F7574206F662068656186
:107CC00070206D656D6F72790A000001000102027B
:107CD0000303484543544F523A2053544152540AE7
:107CE0000D004D4943524F4E49432C20612E732EB7
:107CF00000484543544F52204576616C7561746964
:107D00006F6E20426F61726400303130303030303D
:107D100031004346472D485300496E7465726661D1
:107D200063652D4D53440000430000008001002096
:107D3000F8B500BFF8BC08BC9E467047F8B500BF58
:107D4000F8BC08BC9E46704731660000E5040000A0
:107D5000C10400000000000000000000000000005E
:107D6000000000000100000001120000C910000026
:107D70007D160000A91500000D150000D90F0000A8
:107D8000B51400009D110000DD0F0000BD110000C2
:107D9000E90F0000030000005553425300000000AB
:107DA000000000000000000009022000010104C0E2
:107DB000320904000002080650050705810200028E
:107DC000FF070501020002FF192200001124000034
:107DD0006D2100002D230000E52B0000C52B0000C5
:107DE000000000000000000009022000010104C0A2
:107DF0003209040000020806500507058102400010
:107E0000FF070501024000FFF00000000000000B2A
:107E100000000000000000000000000080F5E40900
:107E2000B09E3C01C07AF204C07AF204C07AF20437
:107E3000C07AF204C07AF204000200004E4F5F4E96
:107E4000414D452E62696E000000000000000000F8
:107E500000800402200000004D4943524F4E494328
:107E6000484543544F525F4576616C426F6172647E
:107E7000303130300000010001000000000200003D
:107E8000E95E0000F15E00002B5F0000315F000042
:107E9000415F00000D5F0000275F0000ED5E000005
:107EA000D55E00003D5F00000A06000200000040B1
:107EB00001000A060002000000400100040309045A
:107EC0001201000200000040141501000030010200
:107ED00003010000CD5F0000D95F000029600000B1
:107EE000000000006C040020D40400203C050020A9
:107EF0000000000000000000000000000000000082
:107F00000000000000000000000000000000000071
:107F100000000000287D00000000000000000000BC
:107F20000000000000000000000000000000000051
:107F30000000000000000000000000000000000041
:107F40000000000000000000000000000000000031
:107F50000000000000000000000000000000000021
:107F60000000000000000000000000000000000011
:107F70000000000000000000000000000000000001
:107F800000000000000000000100000000000000F0
:107F90000E33CDAB34126DE6ECDE05000B000000B5
:107FA00000000000000000000000000000000000D1
:107FB00000000000000000000000000000000000C1
:107FC00000000000000000000000000000000000B1
:107FD00000000000000000000000000000000000A1
:1083000000000000000000008001002000000000CC
:1083100000000000AC050020AC050020B4050020E2
:10832000B4050020BC050020BC050020C4050020C9
:10833000C4050020CC050020CC050020D405002079
:10834000D4050020DC050020DC050020E405002029
:10835000E4050020EC050020EC050020F4050020D9
:10836000F4050020FC050020FC0500200406002088
:10837000040600200C0600200C0600201406002035
:10838000140600201C0600201C06002024060020E5
:10839000240600202C0600202C0600203406002095
:1083A000340600203C0600203C0600204406002045
:1083B000440600204C0600204C06002054060020F5
:1083C000540600205C0600205C06002064060020A5
:1083D000640600206C0600206C0600207406002055
:1083E000740600207C0600207C0600208406002005
:1083F000840600208C0600208C06002094060020B5
:10840000940600209C0600209C060020A406002064
:10841000A4060020AC060020AC060020B406002014
:10842000B4060020BC060020BC060020C4060020C4
:10843000C4060020CC060020CC060020D406002074
:10844000D4060020DC060020DC060020E406002024
:10845000E4060020EC060020EC060020F4060020D4
:10846000F4060020FC060020FC0600200407002083
:10847000040700200C0700200C0700201407002030
:10848000140700201C0700201C07002024070020E0
:10849000240700202C0700202C0700203407002090
:1084A000340700203C0700203C0700204407002040
:1084B000440700204C0700204C07002054070020F0
:1084C000540700205C0700205C07002064070020A0
:1084D000640700206C0700206C0700207407002050
:1084E000740700207C0700207C0700208407002000
:1084F000840700208C0700208C07002094070020B0
:10850000940700209C0700209C070020A40700205F
:10851000A4070020AC070020AC070020B40700200F
:10852000B4070020BC070020BC070020C4070020BF
:10853000C4070020CC070020CC070020D40700206F
:10854000D4070020DC070020DC070020E40700201F
:10855000E4070020EC070020EC070020F4070020CF
:10856000F4070020FC070020FC070020040800207E
:10857000040800200C0800200C080020140800202B
:10858000140800201C0800201C08002024080020DB
:10859000240800202C0800202C080020340800208B
:1085A000340800203C0800203C080020440800203B
:1085B000440800204C0800204C08002054080020EB
:1085C000540800205C0800205C080020640800209B
:1085D000640800206C0800206C080020740800204B
:1085E000740800207C0800207C08002084080020FB
:1085F000840800208C0800208C08002094080020AB
:10860000940800209C0800209C080020A40800205A
:10861000A4080020AC080020AC080020B40800200A
:10862000B4080020BC080020BC080020C4080020BA
:10863000C4080020CC080020CC080020D40800206A
:10864000D4080020DC080020DC080020E40800201A
:10865000E4080020EC080020EC080020F4080020CA
:10866000F4080020FC080020FC0800200409002079
:10867000040900200C0900200C0900201409002026
:10868000140900201C0900201C09002024090020D6
:10869000240900202C0900202C0900203409002086
:1086A000340900203C0900203C0900204409002036
:1086B000440900204C0900204C09002054090020E6
:1086C000540900205C0900205C0900206409002096
:1086D000640900206C0900206C0900207409002046
:1086E000740900207C0900207C09002084090020F6
:1086F000840900208C0900208C09002094090020A6
:10870000940900209C0900209C090020A409002055
:10871000A409002000000200FFFFFFFF000000008E
:040000030000019167
:00000001FF
